{
  "contracts/LiaiazonPresale.sol": {
    "LiaiazonPresale": {
      "abi": [
        {
          "inputs": [
            {
              "internalType": "uint256",
              "name": "_icoStart",
              "type": "uint256"
            },
            {
              "internalType": "uint256",
              "name": "_icoEnd",
              "type": "uint256"
            },
            {
              "internalType": "uint256",
              "name": "_tokenRate",
              "type": "uint256"
            },
            {
              "internalType": "address",
              "name": "_LiaizonToken",
              "type": "address"
            },
            {
              "internalType": "uint256",
              "name": "_fundingGoal",
              "type": "uint256"
            },
            {
              "internalType": "uint256",
              "name": "_MaticLimit",
              "type": "uint256"
            }
          ],
          "stateMutability": "nonpayable",
          "type": "constructor"
        },
        {
          "anonymous": false,
          "inputs": [],
          "name": "ICOCompleted",
          "type": "event"
        },
        {
          "anonymous": false,
          "inputs": [],
          "name": "ICOStarted",
          "type": "event"
        },
        {
          "anonymous": false,
          "inputs": [
            {
              "indexed": false,
              "internalType": "uint256",
              "name": "amount",
              "type": "uint256"
            }
          ],
          "name": "MaticExtracted",
          "type": "event"
        },
        {
          "anonymous": false,
          "inputs": [
            {
              "indexed": true,
              "internalType": "address",
              "name": "minter",
              "type": "address"
            }
          ],
          "name": "MinterChanged",
          "type": "event"
        },
        {
          "anonymous": false,
          "inputs": [
            {
              "indexed": true,
              "internalType": "address",
              "name": "owner",
              "type": "address"
            }
          ],
          "name": "OwnerChanged",
          "type": "event"
        },
        {
          "anonymous": false,
          "inputs": [],
          "name": "Pause",
          "type": "event"
        },
        {
          "anonymous": false,
          "inputs": [
            {
              "indexed": true,
              "internalType": "address",
              "name": "account",
              "type": "address"
            },
            {
              "indexed": false,
              "internalType": "uint256",
              "name": "tokensToBuy",
              "type": "uint256"
            }
          ],
          "name": "TokensBought",
          "type": "event"
        },
        {
          "anonymous": false,
          "inputs": [],
          "name": "Unpause",
          "type": "event"
        },
        {
          "inputs": [],
          "name": "LiaizonToken",
          "outputs": [
            {
              "internalType": "address",
              "name": "",
              "type": "address"
            }
          ],
          "stateMutability": "view",
          "type": "function"
        },
        {
          "inputs": [],
          "name": "MaticLimit",
          "outputs": [
            {
              "internalType": "uint256",
              "name": "",
              "type": "uint256"
            }
          ],
          "stateMutability": "view",
          "type": "function"
        },
        {
          "inputs": [],
          "name": "MaticRaised",
          "outputs": [
            {
              "internalType": "uint256",
              "name": "",
              "type": "uint256"
            }
          ],
          "stateMutability": "view",
          "type": "function"
        },
        {
          "inputs": [],
          "name": "buy",
          "outputs": [
            {
              "internalType": "bool",
              "name": "",
              "type": "bool"
            }
          ],
          "stateMutability": "payable",
          "type": "function"
        },
        {
          "inputs": [
            {
              "internalType": "address",
              "name": "newMinter",
              "type": "address"
            }
          ],
          "name": "changeMinter",
          "outputs": [],
          "stateMutability": "nonpayable",
          "type": "function"
        },
        {
          "inputs": [
            {
              "internalType": "address",
              "name": "newOwner",
              "type": "address"
            }
          ],
          "name": "changeOwner",
          "outputs": [],
          "stateMutability": "nonpayable",
          "type": "function"
        },
        {
          "inputs": [],
          "name": "extractMatic",
          "outputs": [
            {
              "internalType": "bool",
              "name": "",
              "type": "bool"
            }
          ],
          "stateMutability": "nonpayable",
          "type": "function"
        },
        {
          "inputs": [],
          "name": "fundingGoal",
          "outputs": [
            {
              "internalType": "uint256",
              "name": "",
              "type": "uint256"
            }
          ],
          "stateMutability": "view",
          "type": "function"
        },
        {
          "inputs": [],
          "name": "icoEndTime",
          "outputs": [
            {
              "internalType": "uint256",
              "name": "",
              "type": "uint256"
            }
          ],
          "stateMutability": "view",
          "type": "function"
        },
        {
          "inputs": [],
          "name": "icoStartTime",
          "outputs": [
            {
              "internalType": "uint256",
              "name": "",
              "type": "uint256"
            }
          ],
          "stateMutability": "view",
          "type": "function"
        },
        {
          "inputs": [],
          "name": "minter",
          "outputs": [
            {
              "internalType": "address",
              "name": "",
              "type": "address"
            }
          ],
          "stateMutability": "view",
          "type": "function"
        },
        {
          "inputs": [],
          "name": "owner",
          "outputs": [
            {
              "internalType": "address",
              "name": "",
              "type": "address"
            }
          ],
          "stateMutability": "view",
          "type": "function"
        },
        {
          "inputs": [],
          "name": "pause",
          "outputs": [],
          "stateMutability": "nonpayable",
          "type": "function"
        },
        {
          "inputs": [],
          "name": "paused",
          "outputs": [
            {
              "internalType": "bool",
              "name": "",
              "type": "bool"
            }
          ],
          "stateMutability": "view",
          "type": "function"
        },
        {
          "inputs": [],
          "name": "tokenRate",
          "outputs": [
            {
              "internalType": "uint256",
              "name": "",
              "type": "uint256"
            }
          ],
          "stateMutability": "view",
          "type": "function"
        },
        {
          "inputs": [],
          "name": "unpause",
          "outputs": [],
          "stateMutability": "nonpayable",
          "type": "function"
        }
      ],
      "evm": {
        "bytecode": {
          "linkReferences": {},
          "object": "608060405260018060146101000a81548160ff0219169083151502179055506000600960006101000a81548160ff0219169083151502179055503480156200004657600080fd5b50604051620015973803806200159783398181016040528101906200006c91906200020a565b336000806101000a81548173ffffffffffffffffffffffffffffffffffffffff021916908373ffffffffffffffffffffffffffffffffffffffff16021790555033600160006101000a81548173ffffffffffffffffffffffffffffffffffffffff021916908373ffffffffffffffffffffffffffffffffffffffff1602179055506000861415801562000100575060008514155b80156200010c57508486105b80156200011a575060008414155b8015620001545750600073ffffffffffffffffffffffffffffffffffffffff168373ffffffffffffffffffffffffffffffffffffffff1614155b801562000162575060008214155b6200016c57600080fd5b85600281905550846003819055508360048190555082600560006101000a81548173ffffffffffffffffffffffffffffffffffffffff021916908373ffffffffffffffffffffffffffffffffffffffff160217905550816007819055508060088190555050505050505062000312565b600081519050620001ed81620002de565b92915050565b6000815190506200020481620002f8565b92915050565b60008060008060008060c087890312156200022457600080fd5b60006200023489828a01620001f3565b96505060206200024789828a01620001f3565b95505060406200025a89828a01620001f3565b94505060606200026d89828a01620001dc565b93505060806200028089828a01620001f3565b92505060a06200029389828a01620001f3565b9150509295509295509295565b6000620002ad82620002b4565b9050919050565b600073ffffffffffffffffffffffffffffffffffffffff82169050919050565b6000819050919050565b620002e981620002a0565b8114620002f557600080fd5b50565b6200030381620002d4565b81146200030f57600080fd5b50565b61127580620003226000396000f3fe6080604052600436106100f35760003560e01c80636acceeb11161008a5780638da5cb5b116100595780638da5cb5b146102d2578063a6f2ae3a146102fd578063a6f9dae11461031b578063a7c3d71b14610344576100f3565b80636acceeb11461023a5780637a3a0e84146102655780637e1055b6146102905780638456cb59146102bb576100f3565b80633f4ba83a116100c65780633f4ba83a146101a25780634183924a146101b95780634a3b3e63146101e45780635c975abb1461020f576100f3565b806307546172146100f85780632c4d4d1814610123578063317118841461014c5780633c0e994a14610177575b600080fd5b34801561010457600080fd5b5061010d61036f565b60405161011a9190610f79565b60405180910390f35b34801561012f57600080fd5b5061014a60048036038101906101459190610d14565b610395565b005b34801561015857600080fd5b50610161610496565b60405161016e91906110b8565b60405180910390f35b34801561018357600080fd5b5061018c61049c565b60405161019991906110b8565b60405180910390f35b3480156101ae57600080fd5b506101b76104a2565b005b3480156101c557600080fd5b506101ce61055c565b6040516101db9190610f79565b60405180910390f35b3480156101f057600080fd5b506101f9610582565b6040516102069190610fbd565b60405180910390f35b34801561021b57600080fd5b50610224610738565b6040516102319190610fbd565b60405180910390f35b34801561024657600080fd5b5061024f61074b565b60405161025c91906110b8565b60405180910390f35b34801561027157600080fd5b5061027a610751565b60405161028791906110b8565b60405180910390f35b34801561029c57600080fd5b506102a5610757565b6040516102b291906110b8565b60405180910390f35b3480156102c757600080fd5b506102d061075d565b005b3480156102de57600080fd5b506102e7610817565b6040516102f49190610f79565b60405180910390f35b61030561083b565b6040516103129190610fbd565b60405180910390f35b34801561032757600080fd5b50610342600480360381019061033d9190610d14565b610b44565b005b34801561035057600080fd5b50610359610c77565b60405161036691906110b8565b60405180910390f35b600160009054906101000a900473ffffffffffffffffffffffffffffffffffffffff1681565b60008054906101000a900473ffffffffffffffffffffffffffffffffffffffff1673ffffffffffffffffffffffffffffffffffffffff163373ffffffffffffffffffffffffffffffffffffffff16146103ed57600080fd5b80600160006101000a81548173ffffffffffffffffffffffffffffffffffffffff021916908373ffffffffffffffffffffffffffffffffffffffff160217905550600160009054906101000a900473ffffffffffffffffffffffffffffffffffffffff1673ffffffffffffffffffffffffffffffffffffffff167fb6b8f1859c5c352e5ffad07d0f77e384ac725512c015bd3a3ffc885831c8a42560405160405180910390a250565b60045481565b60085481565b60008054906101000a900473ffffffffffffffffffffffffffffffffffffffff1673ffffffffffffffffffffffffffffffffffffffff163373ffffffffffffffffffffffffffffffffffffffff16146104fa57600080fd5b600160149054906101000a900460ff1661051357600080fd5b6000600160146101000a81548160ff0219169083151502179055507f7805862f689e2f13df9f062ff482ad3ad112aca9e0847911ed832e158c525b3360405160405180910390a1565b600560009054906101000a900473ffffffffffffffffffffffffffffffffffffffff1681565b600060035442116105c8576040517f08c379a00000000000000000000000000000000000000000000000000000000081526004016105bf90610fd8565b60405180910390fd5b60008054906101000a900473ffffffffffffffffffffffffffffffffffffffff1673ffffffffffffffffffffffffffffffffffffffff163373ffffffffffffffffffffffffffffffffffffffff161461062057600080fd5b60006006541161062f57600080fd5b7f63a44262d0ed775ba7f6d80333e0834a37d89afc0a24607b01449ca5cfaa911160405160405180910390a160008060009054906101000a900473ffffffffffffffffffffffffffffffffffffffff1673ffffffffffffffffffffffffffffffffffffffff166108fc6006549081150290604051600060405180830381858888f193505050509050806106f7576040517f08c379a00000000000000000000000000000000000000000000000000000000081526004016106ee90611098565b60405180910390fd5b7f75f10578780a4ac5d9d39722fa8115b101ed1abd53bb5eaf8f51cdf6cba795ba60065460405161072891906110b8565b60405180910390a1600191505090565b600160149054906101000a900460ff1681565b60065481565b60075481565b60035481565b60008054906101000a900473ffffffffffffffffffffffffffffffffffffffff1673ffffffffffffffffffffffffffffffffffffffff163373ffffffffffffffffffffffffffffffffffffffff16146107b557600080fd5b600160149054906101000a900460ff16156107cf57600080fd5b60018060146101000a81548160ff0219169083151502179055507f6985a02210a168e66602d3235cb6db0e70f92b3ba4d376a33c0f3d9434bff62560405160405180910390a1565b60008054906101000a900473ffffffffffffffffffffffffffffffffffffffff1681565b6000600160149054906101000a900460ff161561085757600080fd5b600254421161089b576040517f08c379a000000000000000000000000000000000000000000000000000000000815260040161089290610ff8565b60405180910390fd5b60035442106108df576040517f08c379a00000000000000000000000000000000000000000000000000000000081526004016108d690611018565b60405180910390fd5b60075460065410610925576040517f08c379a000000000000000000000000000000000000000000000000000000000815260040161091c90611038565b60405180910390fd5b60085434111561096a576040517f08c379a000000000000000000000000000000000000000000000000000000000815260040161096190611078565b60405180910390fd5b600960009054906101000a900460ff166109c6576001600960006101000a81548160ff0219169083151502179055507ffc618519ae40d98dcc0290aca36bb7869677a04294f2fef8e079935048be9f1b60405160405180910390a15b600034905060006109e260045483610c7d90919063ffffffff16565b90506109f982600654610c9890919063ffffffff16565b600681905550600560009054906101000a900473ffffffffffffffffffffffffffffffffffffffff1673ffffffffffffffffffffffffffffffffffffffff166340c10f1933836040518363ffffffff1660e01b8152600401610a5c929190610f94565b602060405180830381600087803b158015610a7657600080fd5b505af1158015610a8a573d6000803e3d6000fd5b505050506040513d601f19601f82011682018060405250810190610aae9190610d3d565b610aed576040517f08c379a0000000000000000000000000000000000000000000000000000000008152600401610ae490611058565b60405180910390fd5b3373ffffffffffffffffffffffffffffffffffffffff167f745f661b8143944fb883f50694ebed3a871e43c451d9d4bf4648a9d551d7e47a82604051610b3391906110b8565b60405180910390a260019250505090565b60008054906101000a900473ffffffffffffffffffffffffffffffffffffffff1673ffffffffffffffffffffffffffffffffffffffff163373ffffffffffffffffffffffffffffffffffffffff1614610b9c57600080fd5b600073ffffffffffffffffffffffffffffffffffffffff168173ffffffffffffffffffffffffffffffffffffffff1614610c1157806000806101000a81548173ffffffffffffffffffffffffffffffffffffffff021916908373ffffffffffffffffffffffffffffffffffffffff1602179055505b60008054906101000a900473ffffffffffffffffffffffffffffffffffffffff1673ffffffffffffffffffffffffffffffffffffffff167fa2ea9883a321a3e97b8266c2b078bfeec6d50c711ed71f874a90d500ae2eaf3660405160405180910390a250565b60025481565b6000808284610c8c919061113a565b90508091505092915050565b6000808284610ca791906110e4565b905083811015610ce0577f4e487b7100000000000000000000000000000000000000000000000000000000600052600160045260246000fd5b8091505092915050565b600081359050610cf981611211565b92915050565b600081519050610d0e81611228565b92915050565b600060208284031215610d2657600080fd5b6000610d3484828501610cea565b91505092915050565b600060208284031215610d4f57600080fd5b6000610d5d84828501610cff565b91505092915050565b610d6f8161116b565b82525050565b610d7e8161117d565b82525050565b6000610d916014836110d3565b91507f49434f206973206e6f7420636f6d706c657465640000000000000000000000006000830152602082019050919050565b6000610dd16013836110d3565b91507f49434f20686173206e6f742073746172746564000000000000000000000000006000830152602082019050919050565b6000610e116010836110d3565b91507f49434f20697320636f6d706c65746564000000000000000000000000000000006000830152602082019050919050565b6000610e516014836110d3565b91507f46756e64696e6720476f616c20526561636865640000000000000000000000006000830152602082019050919050565b6000610e916014836110d3565b91507f556e61626c6520746f206d696e7420546f6b656e0000000000000000000000006000830152602082019050919050565b6000610ed16025836110d3565b91507f4d6178696d756d20416d6f756e74206f66204d61746963204c696d697420526560008301527f61636865640000000000000000000000000000000000000000000000000000006020830152604082019050919050565b6000610f376014836110d3565b91507f4661696c656420746f2073656e64204d617469630000000000000000000000006000830152602082019050919050565b610f73816111a9565b82525050565b6000602082019050610f8e6000830184610d66565b92915050565b6000604082019050610fa96000830185610d66565b610fb66020830184610f6a565b9392505050565b6000602082019050610fd26000830184610d75565b92915050565b60006020820190508181036000830152610ff181610d84565b9050919050565b6000602082019050818103600083015261101181610dc4565b9050919050565b6000602082019050818103600083015261103181610e04565b9050919050565b6000602082019050818103600083015261105181610e44565b9050919050565b6000602082019050818103600083015261107181610e84565b9050919050565b6000602082019050818103600083015261109181610ec4565b9050919050565b600060208201905081810360008301526110b181610f2a565b9050919050565b60006020820190506110cd6000830184610f6a565b92915050565b600082825260208201905092915050565b60006110ef826111a9565b91506110fa836111a9565b9250827fffffffffffffffffffffffffffffffffffffffffffffffffffffffffffffffff0382111561112f5761112e6111b3565b5b828201905092915050565b6000611145826111a9565b9150611150836111a9565b9250826111605761115f6111e2565b5b828204905092915050565b600061117682611189565b9050919050565b60008115159050919050565b600073ffffffffffffffffffffffffffffffffffffffff82169050919050565b6000819050919050565b7f4e487b7100000000000000000000000000000000000000000000000000000000600052601160045260246000fd5b7f4e487b7100000000000000000000000000000000000000000000000000000000600052601260045260246000fd5b61121a8161116b565b811461122557600080fd5b50565b6112318161117d565b811461123c57600080fd5b5056fea264697066735822122009f99c87c222a87bf463778cd560b87014e1cd554ebef65f031f6e2377e864a664736f6c63430008000033",
          "opcodes": "PUSH1 0x80 PUSH1 0x40 MSTORE PUSH1 0x1 DUP1 PUSH1 0x14 PUSH2 0x100 EXP DUP2 SLOAD DUP2 PUSH1 0xFF MUL NOT AND SWAP1 DUP4 ISZERO ISZERO MUL OR SWAP1 SSTORE POP PUSH1 0x0 PUSH1 0x9 PUSH1 0x0 PUSH2 0x100 EXP DUP2 SLOAD DUP2 PUSH1 0xFF MUL NOT AND SWAP1 DUP4 ISZERO ISZERO MUL OR SWAP1 SSTORE POP CALLVALUE DUP1 ISZERO PUSH3 0x46 JUMPI PUSH1 0x0 DUP1 REVERT JUMPDEST POP PUSH1 0x40 MLOAD PUSH3 0x1597 CODESIZE SUB DUP1 PUSH3 0x1597 DUP4 CODECOPY DUP2 DUP2 ADD PUSH1 0x40 MSTORE DUP2 ADD SWAP1 PUSH3 0x6C SWAP2 SWAP1 PUSH3 0x20A JUMP JUMPDEST CALLER PUSH1 0x0 DUP1 PUSH2 0x100 EXP DUP2 SLOAD DUP2 PUSH20 0xFFFFFFFFFFFFFFFFFFFFFFFFFFFFFFFFFFFFFFFF MUL NOT AND SWAP1 DUP4 PUSH20 0xFFFFFFFFFFFFFFFFFFFFFFFFFFFFFFFFFFFFFFFF AND MUL OR SWAP1 SSTORE POP CALLER PUSH1 0x1 PUSH1 0x0 PUSH2 0x100 EXP DUP2 SLOAD DUP2 PUSH20 0xFFFFFFFFFFFFFFFFFFFFFFFFFFFFFFFFFFFFFFFF MUL NOT AND SWAP1 DUP4 PUSH20 0xFFFFFFFFFFFFFFFFFFFFFFFFFFFFFFFFFFFFFFFF AND MUL OR SWAP1 SSTORE POP PUSH1 0x0 DUP7 EQ ISZERO DUP1 ISZERO PUSH3 0x100 JUMPI POP PUSH1 0x0 DUP6 EQ ISZERO JUMPDEST DUP1 ISZERO PUSH3 0x10C JUMPI POP DUP5 DUP7 LT JUMPDEST DUP1 ISZERO PUSH3 0x11A JUMPI POP PUSH1 0x0 DUP5 EQ ISZERO JUMPDEST DUP1 ISZERO PUSH3 0x154 JUMPI POP PUSH1 0x0 PUSH20 0xFFFFFFFFFFFFFFFFFFFFFFFFFFFFFFFFFFFFFFFF AND DUP4 PUSH20 0xFFFFFFFFFFFFFFFFFFFFFFFFFFFFFFFFFFFFFFFF AND EQ ISZERO JUMPDEST DUP1 ISZERO PUSH3 0x162 JUMPI POP PUSH1 0x0 DUP3 EQ ISZERO JUMPDEST PUSH3 0x16C JUMPI PUSH1 0x0 DUP1 REVERT JUMPDEST DUP6 PUSH1 0x2 DUP2 SWAP1 SSTORE POP DUP5 PUSH1 0x3 DUP2 SWAP1 SSTORE POP DUP4 PUSH1 0x4 DUP2 SWAP1 SSTORE POP DUP3 PUSH1 0x5 PUSH1 0x0 PUSH2 0x100 EXP DUP2 SLOAD DUP2 PUSH20 0xFFFFFFFFFFFFFFFFFFFFFFFFFFFFFFFFFFFFFFFF MUL NOT AND SWAP1 DUP4 PUSH20 0xFFFFFFFFFFFFFFFFFFFFFFFFFFFFFFFFFFFFFFFF AND MUL OR SWAP1 SSTORE POP DUP2 PUSH1 0x7 DUP2 SWAP1 SSTORE POP DUP1 PUSH1 0x8 DUP2 SWAP1 SSTORE POP POP POP POP POP POP POP PUSH3 0x312 JUMP JUMPDEST PUSH1 0x0 DUP2 MLOAD SWAP1 POP PUSH3 0x1ED DUP2 PUSH3 0x2DE JUMP JUMPDEST SWAP3 SWAP2 POP POP JUMP JUMPDEST PUSH1 0x0 DUP2 MLOAD SWAP1 POP PUSH3 0x204 DUP2 PUSH3 0x2F8 JUMP JUMPDEST SWAP3 SWAP2 POP POP JUMP JUMPDEST PUSH1 0x0 DUP1 PUSH1 0x0 DUP1 PUSH1 0x0 DUP1 PUSH1 0xC0 DUP8 DUP10 SUB SLT ISZERO PUSH3 0x224 JUMPI PUSH1 0x0 DUP1 REVERT JUMPDEST PUSH1 0x0 PUSH3 0x234 DUP10 DUP3 DUP11 ADD PUSH3 0x1F3 JUMP JUMPDEST SWAP7 POP POP PUSH1 0x20 PUSH3 0x247 DUP10 DUP3 DUP11 ADD PUSH3 0x1F3 JUMP JUMPDEST SWAP6 POP POP PUSH1 0x40 PUSH3 0x25A DUP10 DUP3 DUP11 ADD PUSH3 0x1F3 JUMP JUMPDEST SWAP5 POP POP PUSH1 0x60 PUSH3 0x26D DUP10 DUP3 DUP11 ADD PUSH3 0x1DC JUMP JUMPDEST SWAP4 POP POP PUSH1 0x80 PUSH3 0x280 DUP10 DUP3 DUP11 ADD PUSH3 0x1F3 JUMP JUMPDEST SWAP3 POP POP PUSH1 0xA0 PUSH3 0x293 DUP10 DUP3 DUP11 ADD PUSH3 0x1F3 JUMP JUMPDEST SWAP2 POP POP SWAP3 SWAP6 POP SWAP3 SWAP6 POP SWAP3 SWAP6 JUMP JUMPDEST PUSH1 0x0 PUSH3 0x2AD DUP3 PUSH3 0x2B4 JUMP JUMPDEST SWAP1 POP SWAP2 SWAP1 POP JUMP JUMPDEST PUSH1 0x0 PUSH20 0xFFFFFFFFFFFFFFFFFFFFFFFFFFFFFFFFFFFFFFFF DUP3 AND SWAP1 POP SWAP2 SWAP1 POP JUMP JUMPDEST PUSH1 0x0 DUP2 SWAP1 POP SWAP2 SWAP1 POP JUMP JUMPDEST PUSH3 0x2E9 DUP2 PUSH3 0x2A0 JUMP JUMPDEST DUP2 EQ PUSH3 0x2F5 JUMPI PUSH1 0x0 DUP1 REVERT JUMPDEST POP JUMP JUMPDEST PUSH3 0x303 DUP2 PUSH3 0x2D4 JUMP JUMPDEST DUP2 EQ PUSH3 0x30F JUMPI PUSH1 0x0 DUP1 REVERT JUMPDEST POP JUMP JUMPDEST PUSH2 0x1275 DUP1 PUSH3 0x322 PUSH1 0x0 CODECOPY PUSH1 0x0 RETURN INVALID PUSH1 0x80 PUSH1 0x40 MSTORE PUSH1 0x4 CALLDATASIZE LT PUSH2 0xF3 JUMPI PUSH1 0x0 CALLDATALOAD PUSH1 0xE0 SHR DUP1 PUSH4 0x6ACCEEB1 GT PUSH2 0x8A JUMPI DUP1 PUSH4 0x8DA5CB5B GT PUSH2 0x59 JUMPI DUP1 PUSH4 0x8DA5CB5B EQ PUSH2 0x2D2 JUMPI DUP1 PUSH4 0xA6F2AE3A EQ PUSH2 0x2FD JUMPI DUP1 PUSH4 0xA6F9DAE1 EQ PUSH2 0x31B JUMPI DUP1 PUSH4 0xA7C3D71B EQ PUSH2 0x344 JUMPI PUSH2 0xF3 JUMP JUMPDEST DUP1 PUSH4 0x6ACCEEB1 EQ PUSH2 0x23A JUMPI DUP1 PUSH4 0x7A3A0E84 EQ PUSH2 0x265 JUMPI DUP1 PUSH4 0x7E1055B6 EQ PUSH2 0x290 JUMPI DUP1 PUSH4 0x8456CB59 EQ PUSH2 0x2BB JUMPI PUSH2 0xF3 JUMP JUMPDEST DUP1 PUSH4 0x3F4BA83A GT PUSH2 0xC6 JUMPI DUP1 PUSH4 0x3F4BA83A EQ PUSH2 0x1A2 JUMPI DUP1 PUSH4 0x4183924A EQ PUSH2 0x1B9 JUMPI DUP1 PUSH4 0x4A3B3E63 EQ PUSH2 0x1E4 JUMPI DUP1 PUSH4 0x5C975ABB EQ PUSH2 0x20F JUMPI PUSH2 0xF3 JUMP JUMPDEST DUP1 PUSH4 0x7546172 EQ PUSH2 0xF8 JUMPI DUP1 PUSH4 0x2C4D4D18 EQ PUSH2 0x123 JUMPI DUP1 PUSH4 0x31711884 EQ PUSH2 0x14C JUMPI DUP1 PUSH4 0x3C0E994A EQ PUSH2 0x177 JUMPI JUMPDEST PUSH1 0x0 DUP1 REVERT JUMPDEST CALLVALUE DUP1 ISZERO PUSH2 0x104 JUMPI PUSH1 0x0 DUP1 REVERT JUMPDEST POP PUSH2 0x10D PUSH2 0x36F JUMP JUMPDEST PUSH1 0x40 MLOAD PUSH2 0x11A SWAP2 SWAP1 PUSH2 0xF79 JUMP JUMPDEST PUSH1 0x40 MLOAD DUP1 SWAP2 SUB SWAP1 RETURN JUMPDEST CALLVALUE DUP1 ISZERO PUSH2 0x12F JUMPI PUSH1 0x0 DUP1 REVERT JUMPDEST POP PUSH2 0x14A PUSH1 0x4 DUP1 CALLDATASIZE SUB DUP2 ADD SWAP1 PUSH2 0x145 SWAP2 SWAP1 PUSH2 0xD14 JUMP JUMPDEST PUSH2 0x395 JUMP JUMPDEST STOP JUMPDEST CALLVALUE DUP1 ISZERO PUSH2 0x158 JUMPI PUSH1 0x0 DUP1 REVERT JUMPDEST POP PUSH2 0x161 PUSH2 0x496 JUMP JUMPDEST PUSH1 0x40 MLOAD PUSH2 0x16E SWAP2 SWAP1 PUSH2 0x10B8 JUMP JUMPDEST PUSH1 0x40 MLOAD DUP1 SWAP2 SUB SWAP1 RETURN JUMPDEST CALLVALUE DUP1 ISZERO PUSH2 0x183 JUMPI PUSH1 0x0 DUP1 REVERT JUMPDEST POP PUSH2 0x18C PUSH2 0x49C JUMP JUMPDEST PUSH1 0x40 MLOAD PUSH2 0x199 SWAP2 SWAP1 PUSH2 0x10B8 JUMP JUMPDEST PUSH1 0x40 MLOAD DUP1 SWAP2 SUB SWAP1 RETURN JUMPDEST CALLVALUE DUP1 ISZERO PUSH2 0x1AE JUMPI PUSH1 0x0 DUP1 REVERT JUMPDEST POP PUSH2 0x1B7 PUSH2 0x4A2 JUMP JUMPDEST STOP JUMPDEST CALLVALUE DUP1 ISZERO PUSH2 0x1C5 JUMPI PUSH1 0x0 DUP1 REVERT JUMPDEST POP PUSH2 0x1CE PUSH2 0x55C JUMP JUMPDEST PUSH1 0x40 MLOAD PUSH2 0x1DB SWAP2 SWAP1 PUSH2 0xF79 JUMP JUMPDEST PUSH1 0x40 MLOAD DUP1 SWAP2 SUB SWAP1 RETURN JUMPDEST CALLVALUE DUP1 ISZERO PUSH2 0x1F0 JUMPI PUSH1 0x0 DUP1 REVERT JUMPDEST POP PUSH2 0x1F9 PUSH2 0x582 JUMP JUMPDEST PUSH1 0x40 MLOAD PUSH2 0x206 SWAP2 SWAP1 PUSH2 0xFBD JUMP JUMPDEST PUSH1 0x40 MLOAD DUP1 SWAP2 SUB SWAP1 RETURN JUMPDEST CALLVALUE DUP1 ISZERO PUSH2 0x21B JUMPI PUSH1 0x0 DUP1 REVERT JUMPDEST POP PUSH2 0x224 PUSH2 0x738 JUMP JUMPDEST PUSH1 0x40 MLOAD PUSH2 0x231 SWAP2 SWAP1 PUSH2 0xFBD JUMP JUMPDEST PUSH1 0x40 MLOAD DUP1 SWAP2 SUB SWAP1 RETURN JUMPDEST CALLVALUE DUP1 ISZERO PUSH2 0x246 JUMPI PUSH1 0x0 DUP1 REVERT JUMPDEST POP PUSH2 0x24F PUSH2 0x74B JUMP JUMPDEST PUSH1 0x40 MLOAD PUSH2 0x25C SWAP2 SWAP1 PUSH2 0x10B8 JUMP JUMPDEST PUSH1 0x40 MLOAD DUP1 SWAP2 SUB SWAP1 RETURN JUMPDEST CALLVALUE DUP1 ISZERO PUSH2 0x271 JUMPI PUSH1 0x0 DUP1 REVERT JUMPDEST POP PUSH2 0x27A PUSH2 0x751 JUMP JUMPDEST PUSH1 0x40 MLOAD PUSH2 0x287 SWAP2 SWAP1 PUSH2 0x10B8 JUMP JUMPDEST PUSH1 0x40 MLOAD DUP1 SWAP2 SUB SWAP1 RETURN JUMPDEST CALLVALUE DUP1 ISZERO PUSH2 0x29C JUMPI PUSH1 0x0 DUP1 REVERT JUMPDEST POP PUSH2 0x2A5 PUSH2 0x757 JUMP JUMPDEST PUSH1 0x40 MLOAD PUSH2 0x2B2 SWAP2 SWAP1 PUSH2 0x10B8 JUMP JUMPDEST PUSH1 0x40 MLOAD DUP1 SWAP2 SUB SWAP1 RETURN JUMPDEST CALLVALUE DUP1 ISZERO PUSH2 0x2C7 JUMPI PUSH1 0x0 DUP1 REVERT JUMPDEST POP PUSH2 0x2D0 PUSH2 0x75D JUMP JUMPDEST STOP JUMPDEST CALLVALUE DUP1 ISZERO PUSH2 0x2DE JUMPI PUSH1 0x0 DUP1 REVERT JUMPDEST POP PUSH2 0x2E7 PUSH2 0x817 JUMP JUMPDEST PUSH1 0x40 MLOAD PUSH2 0x2F4 SWAP2 SWAP1 PUSH2 0xF79 JUMP JUMPDEST PUSH1 0x40 MLOAD DUP1 SWAP2 SUB SWAP1 RETURN JUMPDEST PUSH2 0x305 PUSH2 0x83B JUMP JUMPDEST PUSH1 0x40 MLOAD PUSH2 0x312 SWAP2 SWAP1 PUSH2 0xFBD JUMP JUMPDEST PUSH1 0x40 MLOAD DUP1 SWAP2 SUB SWAP1 RETURN JUMPDEST CALLVALUE DUP1 ISZERO PUSH2 0x327 JUMPI PUSH1 0x0 DUP1 REVERT JUMPDEST POP PUSH2 0x342 PUSH1 0x4 DUP1 CALLDATASIZE SUB DUP2 ADD SWAP1 PUSH2 0x33D SWAP2 SWAP1 PUSH2 0xD14 JUMP JUMPDEST PUSH2 0xB44 JUMP JUMPDEST STOP JUMPDEST CALLVALUE DUP1 ISZERO PUSH2 0x350 JUMPI PUSH1 0x0 DUP1 REVERT JUMPDEST POP PUSH2 0x359 PUSH2 0xC77 JUMP JUMPDEST PUSH1 0x40 MLOAD PUSH2 0x366 SWAP2 SWAP1 PUSH2 0x10B8 JUMP JUMPDEST PUSH1 0x40 MLOAD DUP1 SWAP2 SUB SWAP1 RETURN JUMPDEST PUSH1 0x1 PUSH1 0x0 SWAP1 SLOAD SWAP1 PUSH2 0x100 EXP SWAP1 DIV PUSH20 0xFFFFFFFFFFFFFFFFFFFFFFFFFFFFFFFFFFFFFFFF AND DUP2 JUMP JUMPDEST PUSH1 0x0 DUP1 SLOAD SWAP1 PUSH2 0x100 EXP SWAP1 DIV PUSH20 0xFFFFFFFFFFFFFFFFFFFFFFFFFFFFFFFFFFFFFFFF AND PUSH20 0xFFFFFFFFFFFFFFFFFFFFFFFFFFFFFFFFFFFFFFFF AND CALLER PUSH20 0xFFFFFFFFFFFFFFFFFFFFFFFFFFFFFFFFFFFFFFFF AND EQ PUSH2 0x3ED JUMPI PUSH1 0x0 DUP1 REVERT JUMPDEST DUP1 PUSH1 0x1 PUSH1 0x0 PUSH2 0x100 EXP DUP2 SLOAD DUP2 PUSH20 0xFFFFFFFFFFFFFFFFFFFFFFFFFFFFFFFFFFFFFFFF MUL NOT AND SWAP1 DUP4 PUSH20 0xFFFFFFFFFFFFFFFFFFFFFFFFFFFFFFFFFFFFFFFF AND MUL OR SWAP1 SSTORE POP PUSH1 0x1 PUSH1 0x0 SWAP1 SLOAD SWAP1 PUSH2 0x100 EXP SWAP1 DIV PUSH20 0xFFFFFFFFFFFFFFFFFFFFFFFFFFFFFFFFFFFFFFFF AND PUSH20 0xFFFFFFFFFFFFFFFFFFFFFFFFFFFFFFFFFFFFFFFF AND PUSH32 0xB6B8F1859C5C352E5FFAD07D0F77E384AC725512C015BD3A3FFC885831C8A425 PUSH1 0x40 MLOAD PUSH1 0x40 MLOAD DUP1 SWAP2 SUB SWAP1 LOG2 POP JUMP JUMPDEST PUSH1 0x4 SLOAD DUP2 JUMP JUMPDEST PUSH1 0x8 SLOAD DUP2 JUMP JUMPDEST PUSH1 0x0 DUP1 SLOAD SWAP1 PUSH2 0x100 EXP SWAP1 DIV PUSH20 0xFFFFFFFFFFFFFFFFFFFFFFFFFFFFFFFFFFFFFFFF AND PUSH20 0xFFFFFFFFFFFFFFFFFFFFFFFFFFFFFFFFFFFFFFFF AND CALLER PUSH20 0xFFFFFFFFFFFFFFFFFFFFFFFFFFFFFFFFFFFFFFFF AND EQ PUSH2 0x4FA JUMPI PUSH1 0x0 DUP1 REVERT JUMPDEST PUSH1 0x1 PUSH1 0x14 SWAP1 SLOAD SWAP1 PUSH2 0x100 EXP SWAP1 DIV PUSH1 0xFF AND PUSH2 0x513 JUMPI PUSH1 0x0 DUP1 REVERT JUMPDEST PUSH1 0x0 PUSH1 0x1 PUSH1 0x14 PUSH2 0x100 EXP DUP2 SLOAD DUP2 PUSH1 0xFF MUL NOT AND SWAP1 DUP4 ISZERO ISZERO MUL OR SWAP1 SSTORE POP PUSH32 0x7805862F689E2F13DF9F062FF482AD3AD112ACA9E0847911ED832E158C525B33 PUSH1 0x40 MLOAD PUSH1 0x40 MLOAD DUP1 SWAP2 SUB SWAP1 LOG1 JUMP JUMPDEST PUSH1 0x5 PUSH1 0x0 SWAP1 SLOAD SWAP1 PUSH2 0x100 EXP SWAP1 DIV PUSH20 0xFFFFFFFFFFFFFFFFFFFFFFFFFFFFFFFFFFFFFFFF AND DUP2 JUMP JUMPDEST PUSH1 0x0 PUSH1 0x3 SLOAD TIMESTAMP GT PUSH2 0x5C8 JUMPI PUSH1 0x40 MLOAD PUSH32 0x8C379A000000000000000000000000000000000000000000000000000000000 DUP2 MSTORE PUSH1 0x4 ADD PUSH2 0x5BF SWAP1 PUSH2 0xFD8 JUMP JUMPDEST PUSH1 0x40 MLOAD DUP1 SWAP2 SUB SWAP1 REVERT JUMPDEST PUSH1 0x0 DUP1 SLOAD SWAP1 PUSH2 0x100 EXP SWAP1 DIV PUSH20 0xFFFFFFFFFFFFFFFFFFFFFFFFFFFFFFFFFFFFFFFF AND PUSH20 0xFFFFFFFFFFFFFFFFFFFFFFFFFFFFFFFFFFFFFFFF AND CALLER PUSH20 0xFFFFFFFFFFFFFFFFFFFFFFFFFFFFFFFFFFFFFFFF AND EQ PUSH2 0x620 JUMPI PUSH1 0x0 DUP1 REVERT JUMPDEST PUSH1 0x0 PUSH1 0x6 SLOAD GT PUSH2 0x62F JUMPI PUSH1 0x0 DUP1 REVERT JUMPDEST PUSH32 0x63A44262D0ED775BA7F6D80333E0834A37D89AFC0A24607B01449CA5CFAA9111 PUSH1 0x40 MLOAD PUSH1 0x40 MLOAD DUP1 SWAP2 SUB SWAP1 LOG1 PUSH1 0x0 DUP1 PUSH1 0x0 SWAP1 SLOAD SWAP1 PUSH2 0x100 EXP SWAP1 DIV PUSH20 0xFFFFFFFFFFFFFFFFFFFFFFFFFFFFFFFFFFFFFFFF AND PUSH20 0xFFFFFFFFFFFFFFFFFFFFFFFFFFFFFFFFFFFFFFFF AND PUSH2 0x8FC PUSH1 0x6 SLOAD SWAP1 DUP2 ISZERO MUL SWAP1 PUSH1 0x40 MLOAD PUSH1 0x0 PUSH1 0x40 MLOAD DUP1 DUP4 SUB DUP2 DUP6 DUP9 DUP9 CALL SWAP4 POP POP POP POP SWAP1 POP DUP1 PUSH2 0x6F7 JUMPI PUSH1 0x40 MLOAD PUSH32 0x8C379A000000000000000000000000000000000000000000000000000000000 DUP2 MSTORE PUSH1 0x4 ADD PUSH2 0x6EE SWAP1 PUSH2 0x1098 JUMP JUMPDEST PUSH1 0x40 MLOAD DUP1 SWAP2 SUB SWAP1 REVERT JUMPDEST PUSH32 0x75F10578780A4AC5D9D39722FA8115B101ED1ABD53BB5EAF8F51CDF6CBA795BA PUSH1 0x6 SLOAD PUSH1 0x40 MLOAD PUSH2 0x728 SWAP2 SWAP1 PUSH2 0x10B8 JUMP JUMPDEST PUSH1 0x40 MLOAD DUP1 SWAP2 SUB SWAP1 LOG1 PUSH1 0x1 SWAP2 POP POP SWAP1 JUMP JUMPDEST PUSH1 0x1 PUSH1 0x14 SWAP1 SLOAD SWAP1 PUSH2 0x100 EXP SWAP1 DIV PUSH1 0xFF AND DUP2 JUMP JUMPDEST PUSH1 0x6 SLOAD DUP2 JUMP JUMPDEST PUSH1 0x7 SLOAD DUP2 JUMP JUMPDEST PUSH1 0x3 SLOAD DUP2 JUMP JUMPDEST PUSH1 0x0 DUP1 SLOAD SWAP1 PUSH2 0x100 EXP SWAP1 DIV PUSH20 0xFFFFFFFFFFFFFFFFFFFFFFFFFFFFFFFFFFFFFFFF AND PUSH20 0xFFFFFFFFFFFFFFFFFFFFFFFFFFFFFFFFFFFFFFFF AND CALLER PUSH20 0xFFFFFFFFFFFFFFFFFFFFFFFFFFFFFFFFFFFFFFFF AND EQ PUSH2 0x7B5 JUMPI PUSH1 0x0 DUP1 REVERT JUMPDEST PUSH1 0x1 PUSH1 0x14 SWAP1 SLOAD SWAP1 PUSH2 0x100 EXP SWAP1 DIV PUSH1 0xFF AND ISZERO PUSH2 0x7CF JUMPI PUSH1 0x0 DUP1 REVERT JUMPDEST PUSH1 0x1 DUP1 PUSH1 0x14 PUSH2 0x100 EXP DUP2 SLOAD DUP2 PUSH1 0xFF MUL NOT AND SWAP1 DUP4 ISZERO ISZERO MUL OR SWAP1 SSTORE POP PUSH32 0x6985A02210A168E66602D3235CB6DB0E70F92B3BA4D376A33C0F3D9434BFF625 PUSH1 0x40 MLOAD PUSH1 0x40 MLOAD DUP1 SWAP2 SUB SWAP1 LOG1 JUMP JUMPDEST PUSH1 0x0 DUP1 SLOAD SWAP1 PUSH2 0x100 EXP SWAP1 DIV PUSH20 0xFFFFFFFFFFFFFFFFFFFFFFFFFFFFFFFFFFFFFFFF AND DUP2 JUMP JUMPDEST PUSH1 0x0 PUSH1 0x1 PUSH1 0x14 SWAP1 SLOAD SWAP1 PUSH2 0x100 EXP SWAP1 DIV PUSH1 0xFF AND ISZERO PUSH2 0x857 JUMPI PUSH1 0x0 DUP1 REVERT JUMPDEST PUSH1 0x2 SLOAD TIMESTAMP GT PUSH2 0x89B JUMPI PUSH1 0x40 MLOAD PUSH32 0x8C379A000000000000000000000000000000000000000000000000000000000 DUP2 MSTORE PUSH1 0x4 ADD PUSH2 0x892 SWAP1 PUSH2 0xFF8 JUMP JUMPDEST PUSH1 0x40 MLOAD DUP1 SWAP2 SUB SWAP1 REVERT JUMPDEST PUSH1 0x3 SLOAD TIMESTAMP LT PUSH2 0x8DF JUMPI PUSH1 0x40 MLOAD PUSH32 0x8C379A000000000000000000000000000000000000000000000000000000000 DUP2 MSTORE PUSH1 0x4 ADD PUSH2 0x8D6 SWAP1 PUSH2 0x1018 JUMP JUMPDEST PUSH1 0x40 MLOAD DUP1 SWAP2 SUB SWAP1 REVERT JUMPDEST PUSH1 0x7 SLOAD PUSH1 0x6 SLOAD LT PUSH2 0x925 JUMPI PUSH1 0x40 MLOAD PUSH32 0x8C379A000000000000000000000000000000000000000000000000000000000 DUP2 MSTORE PUSH1 0x4 ADD PUSH2 0x91C SWAP1 PUSH2 0x1038 JUMP JUMPDEST PUSH1 0x40 MLOAD DUP1 SWAP2 SUB SWAP1 REVERT JUMPDEST PUSH1 0x8 SLOAD CALLVALUE GT ISZERO PUSH2 0x96A JUMPI PUSH1 0x40 MLOAD PUSH32 0x8C379A000000000000000000000000000000000000000000000000000000000 DUP2 MSTORE PUSH1 0x4 ADD PUSH2 0x961 SWAP1 PUSH2 0x1078 JUMP JUMPDEST PUSH1 0x40 MLOAD DUP1 SWAP2 SUB SWAP1 REVERT JUMPDEST PUSH1 0x9 PUSH1 0x0 SWAP1 SLOAD SWAP1 PUSH2 0x100 EXP SWAP1 DIV PUSH1 0xFF AND PUSH2 0x9C6 JUMPI PUSH1 0x1 PUSH1 0x9 PUSH1 0x0 PUSH2 0x100 EXP DUP2 SLOAD DUP2 PUSH1 0xFF MUL NOT AND SWAP1 DUP4 ISZERO ISZERO MUL OR SWAP1 SSTORE POP PUSH32 0xFC618519AE40D98DCC0290ACA36BB7869677A04294F2FEF8E079935048BE9F1B PUSH1 0x40 MLOAD PUSH1 0x40 MLOAD DUP1 SWAP2 SUB SWAP1 LOG1 JUMPDEST PUSH1 0x0 CALLVALUE SWAP1 POP PUSH1 0x0 PUSH2 0x9E2 PUSH1 0x4 SLOAD DUP4 PUSH2 0xC7D SWAP1 SWAP2 SWAP1 PUSH4 0xFFFFFFFF AND JUMP JUMPDEST SWAP1 POP PUSH2 0x9F9 DUP3 PUSH1 0x6 SLOAD PUSH2 0xC98 SWAP1 SWAP2 SWAP1 PUSH4 0xFFFFFFFF AND JUMP JUMPDEST PUSH1 0x6 DUP2 SWAP1 SSTORE POP PUSH1 0x5 PUSH1 0x0 SWAP1 SLOAD SWAP1 PUSH2 0x100 EXP SWAP1 DIV PUSH20 0xFFFFFFFFFFFFFFFFFFFFFFFFFFFFFFFFFFFFFFFF AND PUSH20 0xFFFFFFFFFFFFFFFFFFFFFFFFFFFFFFFFFFFFFFFF AND PUSH4 0x40C10F19 CALLER DUP4 PUSH1 0x40 MLOAD DUP4 PUSH4 0xFFFFFFFF AND PUSH1 0xE0 SHL DUP2 MSTORE PUSH1 0x4 ADD PUSH2 0xA5C SWAP3 SWAP2 SWAP1 PUSH2 0xF94 JUMP JUMPDEST PUSH1 0x20 PUSH1 0x40 MLOAD DUP1 DUP4 SUB DUP2 PUSH1 0x0 DUP8 DUP1 EXTCODESIZE ISZERO DUP1 ISZERO PUSH2 0xA76 JUMPI PUSH1 0x0 DUP1 REVERT JUMPDEST POP GAS CALL ISZERO DUP1 ISZERO PUSH2 0xA8A JUMPI RETURNDATASIZE PUSH1 0x0 DUP1 RETURNDATACOPY RETURNDATASIZE PUSH1 0x0 REVERT JUMPDEST POP POP POP POP PUSH1 0x40 MLOAD RETURNDATASIZE PUSH1 0x1F NOT PUSH1 0x1F DUP3 ADD AND DUP3 ADD DUP1 PUSH1 0x40 MSTORE POP DUP2 ADD SWAP1 PUSH2 0xAAE SWAP2 SWAP1 PUSH2 0xD3D JUMP JUMPDEST PUSH2 0xAED JUMPI PUSH1 0x40 MLOAD PUSH32 0x8C379A000000000000000000000000000000000000000000000000000000000 DUP2 MSTORE PUSH1 0x4 ADD PUSH2 0xAE4 SWAP1 PUSH2 0x1058 JUMP JUMPDEST PUSH1 0x40 MLOAD DUP1 SWAP2 SUB SWAP1 REVERT JUMPDEST CALLER PUSH20 0xFFFFFFFFFFFFFFFFFFFFFFFFFFFFFFFFFFFFFFFF AND PUSH32 0x745F661B8143944FB883F50694EBED3A871E43C451D9D4BF4648A9D551D7E47A DUP3 PUSH1 0x40 MLOAD PUSH2 0xB33 SWAP2 SWAP1 PUSH2 0x10B8 JUMP JUMPDEST PUSH1 0x40 MLOAD DUP1 SWAP2 SUB SWAP1 LOG2 PUSH1 0x1 SWAP3 POP POP POP SWAP1 JUMP JUMPDEST PUSH1 0x0 DUP1 SLOAD SWAP1 PUSH2 0x100 EXP SWAP1 DIV PUSH20 0xFFFFFFFFFFFFFFFFFFFFFFFFFFFFFFFFFFFFFFFF AND PUSH20 0xFFFFFFFFFFFFFFFFFFFFFFFFFFFFFFFFFFFFFFFF AND CALLER PUSH20 0xFFFFFFFFFFFFFFFFFFFFFFFFFFFFFFFFFFFFFFFF AND EQ PUSH2 0xB9C JUMPI PUSH1 0x0 DUP1 REVERT JUMPDEST PUSH1 0x0 PUSH20 0xFFFFFFFFFFFFFFFFFFFFFFFFFFFFFFFFFFFFFFFF AND DUP2 PUSH20 0xFFFFFFFFFFFFFFFFFFFFFFFFFFFFFFFFFFFFFFFF AND EQ PUSH2 0xC11 JUMPI DUP1 PUSH1 0x0 DUP1 PUSH2 0x100 EXP DUP2 SLOAD DUP2 PUSH20 0xFFFFFFFFFFFFFFFFFFFFFFFFFFFFFFFFFFFFFFFF MUL NOT AND SWAP1 DUP4 PUSH20 0xFFFFFFFFFFFFFFFFFFFFFFFFFFFFFFFFFFFFFFFF AND MUL OR SWAP1 SSTORE POP JUMPDEST PUSH1 0x0 DUP1 SLOAD SWAP1 PUSH2 0x100 EXP SWAP1 DIV PUSH20 0xFFFFFFFFFFFFFFFFFFFFFFFFFFFFFFFFFFFFFFFF AND PUSH20 0xFFFFFFFFFFFFFFFFFFFFFFFFFFFFFFFFFFFFFFFF AND PUSH32 0xA2EA9883A321A3E97B8266C2B078BFEEC6D50C711ED71F874A90D500AE2EAF36 PUSH1 0x40 MLOAD PUSH1 0x40 MLOAD DUP1 SWAP2 SUB SWAP1 LOG2 POP JUMP JUMPDEST PUSH1 0x2 SLOAD DUP2 JUMP JUMPDEST PUSH1 0x0 DUP1 DUP3 DUP5 PUSH2 0xC8C SWAP2 SWAP1 PUSH2 0x113A JUMP JUMPDEST SWAP1 POP DUP1 SWAP2 POP POP SWAP3 SWAP2 POP POP JUMP JUMPDEST PUSH1 0x0 DUP1 DUP3 DUP5 PUSH2 0xCA7 SWAP2 SWAP1 PUSH2 0x10E4 JUMP JUMPDEST SWAP1 POP DUP4 DUP2 LT ISZERO PUSH2 0xCE0 JUMPI PUSH32 0x4E487B7100000000000000000000000000000000000000000000000000000000 PUSH1 0x0 MSTORE PUSH1 0x1 PUSH1 0x4 MSTORE PUSH1 0x24 PUSH1 0x0 REVERT JUMPDEST DUP1 SWAP2 POP POP SWAP3 SWAP2 POP POP JUMP JUMPDEST PUSH1 0x0 DUP2 CALLDATALOAD SWAP1 POP PUSH2 0xCF9 DUP2 PUSH2 0x1211 JUMP JUMPDEST SWAP3 SWAP2 POP POP JUMP JUMPDEST PUSH1 0x0 DUP2 MLOAD SWAP1 POP PUSH2 0xD0E DUP2 PUSH2 0x1228 JUMP JUMPDEST SWAP3 SWAP2 POP POP JUMP JUMPDEST PUSH1 0x0 PUSH1 0x20 DUP3 DUP5 SUB SLT ISZERO PUSH2 0xD26 JUMPI PUSH1 0x0 DUP1 REVERT JUMPDEST PUSH1 0x0 PUSH2 0xD34 DUP5 DUP3 DUP6 ADD PUSH2 0xCEA JUMP JUMPDEST SWAP2 POP POP SWAP3 SWAP2 POP POP JUMP JUMPDEST PUSH1 0x0 PUSH1 0x20 DUP3 DUP5 SUB SLT ISZERO PUSH2 0xD4F JUMPI PUSH1 0x0 DUP1 REVERT JUMPDEST PUSH1 0x0 PUSH2 0xD5D DUP5 DUP3 DUP6 ADD PUSH2 0xCFF JUMP JUMPDEST SWAP2 POP POP SWAP3 SWAP2 POP POP JUMP JUMPDEST PUSH2 0xD6F DUP2 PUSH2 0x116B JUMP JUMPDEST DUP3 MSTORE POP POP JUMP JUMPDEST PUSH2 0xD7E DUP2 PUSH2 0x117D JUMP JUMPDEST DUP3 MSTORE POP POP JUMP JUMPDEST PUSH1 0x0 PUSH2 0xD91 PUSH1 0x14 DUP4 PUSH2 0x10D3 JUMP JUMPDEST SWAP2 POP PUSH32 0x49434F206973206E6F7420636F6D706C65746564000000000000000000000000 PUSH1 0x0 DUP4 ADD MSTORE PUSH1 0x20 DUP3 ADD SWAP1 POP SWAP2 SWAP1 POP JUMP JUMPDEST PUSH1 0x0 PUSH2 0xDD1 PUSH1 0x13 DUP4 PUSH2 0x10D3 JUMP JUMPDEST SWAP2 POP PUSH32 0x49434F20686173206E6F74207374617274656400000000000000000000000000 PUSH1 0x0 DUP4 ADD MSTORE PUSH1 0x20 DUP3 ADD SWAP1 POP SWAP2 SWAP1 POP JUMP JUMPDEST PUSH1 0x0 PUSH2 0xE11 PUSH1 0x10 DUP4 PUSH2 0x10D3 JUMP JUMPDEST SWAP2 POP PUSH32 0x49434F20697320636F6D706C6574656400000000000000000000000000000000 PUSH1 0x0 DUP4 ADD MSTORE PUSH1 0x20 DUP3 ADD SWAP1 POP SWAP2 SWAP1 POP JUMP JUMPDEST PUSH1 0x0 PUSH2 0xE51 PUSH1 0x14 DUP4 PUSH2 0x10D3 JUMP JUMPDEST SWAP2 POP PUSH32 0x46756E64696E6720476F616C2052656163686564000000000000000000000000 PUSH1 0x0 DUP4 ADD MSTORE PUSH1 0x20 DUP3 ADD SWAP1 POP SWAP2 SWAP1 POP JUMP JUMPDEST PUSH1 0x0 PUSH2 0xE91 PUSH1 0x14 DUP4 PUSH2 0x10D3 JUMP JUMPDEST SWAP2 POP PUSH32 0x556E61626C6520746F206D696E7420546F6B656E000000000000000000000000 PUSH1 0x0 DUP4 ADD MSTORE PUSH1 0x20 DUP3 ADD SWAP1 POP SWAP2 SWAP1 POP JUMP JUMPDEST PUSH1 0x0 PUSH2 0xED1 PUSH1 0x25 DUP4 PUSH2 0x10D3 JUMP JUMPDEST SWAP2 POP PUSH32 0x4D6178696D756D20416D6F756E74206F66204D61746963204C696D6974205265 PUSH1 0x0 DUP4 ADD MSTORE PUSH32 0x6163686564000000000000000000000000000000000000000000000000000000 PUSH1 0x20 DUP4 ADD MSTORE PUSH1 0x40 DUP3 ADD SWAP1 POP SWAP2 SWAP1 POP JUMP JUMPDEST PUSH1 0x0 PUSH2 0xF37 PUSH1 0x14 DUP4 PUSH2 0x10D3 JUMP JUMPDEST SWAP2 POP PUSH32 0x4661696C656420746F2073656E64204D61746963000000000000000000000000 PUSH1 0x0 DUP4 ADD MSTORE PUSH1 0x20 DUP3 ADD SWAP1 POP SWAP2 SWAP1 POP JUMP JUMPDEST PUSH2 0xF73 DUP2 PUSH2 0x11A9 JUMP JUMPDEST DUP3 MSTORE POP POP JUMP JUMPDEST PUSH1 0x0 PUSH1 0x20 DUP3 ADD SWAP1 POP PUSH2 0xF8E PUSH1 0x0 DUP4 ADD DUP5 PUSH2 0xD66 JUMP JUMPDEST SWAP3 SWAP2 POP POP JUMP JUMPDEST PUSH1 0x0 PUSH1 0x40 DUP3 ADD SWAP1 POP PUSH2 0xFA9 PUSH1 0x0 DUP4 ADD DUP6 PUSH2 0xD66 JUMP JUMPDEST PUSH2 0xFB6 PUSH1 0x20 DUP4 ADD DUP5 PUSH2 0xF6A JUMP JUMPDEST SWAP4 SWAP3 POP POP POP JUMP JUMPDEST PUSH1 0x0 PUSH1 0x20 DUP3 ADD SWAP1 POP PUSH2 0xFD2 PUSH1 0x0 DUP4 ADD DUP5 PUSH2 0xD75 JUMP JUMPDEST SWAP3 SWAP2 POP POP JUMP JUMPDEST PUSH1 0x0 PUSH1 0x20 DUP3 ADD SWAP1 POP DUP2 DUP2 SUB PUSH1 0x0 DUP4 ADD MSTORE PUSH2 0xFF1 DUP2 PUSH2 0xD84 JUMP JUMPDEST SWAP1 POP SWAP2 SWAP1 POP JUMP JUMPDEST PUSH1 0x0 PUSH1 0x20 DUP3 ADD SWAP1 POP DUP2 DUP2 SUB PUSH1 0x0 DUP4 ADD MSTORE PUSH2 0x1011 DUP2 PUSH2 0xDC4 JUMP JUMPDEST SWAP1 POP SWAP2 SWAP1 POP JUMP JUMPDEST PUSH1 0x0 PUSH1 0x20 DUP3 ADD SWAP1 POP DUP2 DUP2 SUB PUSH1 0x0 DUP4 ADD MSTORE PUSH2 0x1031 DUP2 PUSH2 0xE04 JUMP JUMPDEST SWAP1 POP SWAP2 SWAP1 POP JUMP JUMPDEST PUSH1 0x0 PUSH1 0x20 DUP3 ADD SWAP1 POP DUP2 DUP2 SUB PUSH1 0x0 DUP4 ADD MSTORE PUSH2 0x1051 DUP2 PUSH2 0xE44 JUMP JUMPDEST SWAP1 POP SWAP2 SWAP1 POP JUMP JUMPDEST PUSH1 0x0 PUSH1 0x20 DUP3 ADD SWAP1 POP DUP2 DUP2 SUB PUSH1 0x0 DUP4 ADD MSTORE PUSH2 0x1071 DUP2 PUSH2 0xE84 JUMP JUMPDEST SWAP1 POP SWAP2 SWAP1 POP JUMP JUMPDEST PUSH1 0x0 PUSH1 0x20 DUP3 ADD SWAP1 POP DUP2 DUP2 SUB PUSH1 0x0 DUP4 ADD MSTORE PUSH2 0x1091 DUP2 PUSH2 0xEC4 JUMP JUMPDEST SWAP1 POP SWAP2 SWAP1 POP JUMP JUMPDEST PUSH1 0x0 PUSH1 0x20 DUP3 ADD SWAP1 POP DUP2 DUP2 SUB PUSH1 0x0 DUP4 ADD MSTORE PUSH2 0x10B1 DUP2 PUSH2 0xF2A JUMP JUMPDEST SWAP1 POP SWAP2 SWAP1 POP JUMP JUMPDEST PUSH1 0x0 PUSH1 0x20 DUP3 ADD SWAP1 POP PUSH2 0x10CD PUSH1 0x0 DUP4 ADD DUP5 PUSH2 0xF6A JUMP JUMPDEST SWAP3 SWAP2 POP POP JUMP JUMPDEST PUSH1 0x0 DUP3 DUP3 MSTORE PUSH1 0x20 DUP3 ADD SWAP1 POP SWAP3 SWAP2 POP POP JUMP JUMPDEST PUSH1 0x0 PUSH2 0x10EF DUP3 PUSH2 0x11A9 JUMP JUMPDEST SWAP2 POP PUSH2 0x10FA DUP4 PUSH2 0x11A9 JUMP JUMPDEST SWAP3 POP DUP3 PUSH32 0xFFFFFFFFFFFFFFFFFFFFFFFFFFFFFFFFFFFFFFFFFFFFFFFFFFFFFFFFFFFFFFFF SUB DUP3 GT ISZERO PUSH2 0x112F JUMPI PUSH2 0x112E PUSH2 0x11B3 JUMP JUMPDEST JUMPDEST DUP3 DUP3 ADD SWAP1 POP SWAP3 SWAP2 POP POP JUMP JUMPDEST PUSH1 0x0 PUSH2 0x1145 DUP3 PUSH2 0x11A9 JUMP JUMPDEST SWAP2 POP PUSH2 0x1150 DUP4 PUSH2 0x11A9 JUMP JUMPDEST SWAP3 POP DUP3 PUSH2 0x1160 JUMPI PUSH2 0x115F PUSH2 0x11E2 JUMP JUMPDEST JUMPDEST DUP3 DUP3 DIV SWAP1 POP SWAP3 SWAP2 POP POP JUMP JUMPDEST PUSH1 0x0 PUSH2 0x1176 DUP3 PUSH2 0x1189 JUMP JUMPDEST SWAP1 POP SWAP2 SWAP1 POP JUMP JUMPDEST PUSH1 0x0 DUP2 ISZERO ISZERO SWAP1 POP SWAP2 SWAP1 POP JUMP JUMPDEST PUSH1 0x0 PUSH20 0xFFFFFFFFFFFFFFFFFFFFFFFFFFFFFFFFFFFFFFFF DUP3 AND SWAP1 POP SWAP2 SWAP1 POP JUMP JUMPDEST PUSH1 0x0 DUP2 SWAP1 POP SWAP2 SWAP1 POP JUMP JUMPDEST PUSH32 0x4E487B7100000000000000000000000000000000000000000000000000000000 PUSH1 0x0 MSTORE PUSH1 0x11 PUSH1 0x4 MSTORE PUSH1 0x24 PUSH1 0x0 REVERT JUMPDEST PUSH32 0x4E487B7100000000000000000000000000000000000000000000000000000000 PUSH1 0x0 MSTORE PUSH1 0x12 PUSH1 0x4 MSTORE PUSH1 0x24 PUSH1 0x0 REVERT JUMPDEST PUSH2 0x121A DUP2 PUSH2 0x116B JUMP JUMPDEST DUP2 EQ PUSH2 0x1225 JUMPI PUSH1 0x0 DUP1 REVERT JUMPDEST POP JUMP JUMPDEST PUSH2 0x1231 DUP2 PUSH2 0x117D JUMP JUMPDEST DUP2 EQ PUSH2 0x123C JUMPI PUSH1 0x0 DUP1 REVERT JUMPDEST POP JUMP INVALID LOG2 PUSH5 0x6970667358 0x22 SLT KECCAK256 MULMOD 0xF9 SWAP13 DUP8 0xC2 0x22 0xA8 PUSH28 0xF463778CD560B87014E1CD554EBEF65F031F6E2377E864A664736F6C PUSH4 0x43000800 STOP CALLER "
        },
        "methodIdentifiers": {
          "LiaizonToken()": "4183924a",
          "MaticLimit()": "3c0e994a",
          "MaticRaised()": "6acceeb1",
          "buy()": "a6f2ae3a",
          "changeMinter(address)": "2c4d4d18",
          "changeOwner(address)": "a6f9dae1",
          "extractMatic()": "4a3b3e63",
          "fundingGoal()": "7a3a0e84",
          "icoEndTime()": "7e1055b6",
          "icoStartTime()": "a7c3d71b",
          "minter()": "07546172",
          "owner()": "8da5cb5b",
          "pause()": "8456cb59",
          "paused()": "5c975abb",
          "tokenRate()": "31711884",
          "unpause()": "3f4ba83a"
        }
      }
    }
  }
}