{
  "_format": "hh-sol-artifact-1",
  "contractName": "BlackList",
  "sourceName": "contracts/LiaizonToken.sol",
  "abi": [
    {
      "anonymous": false,
      "inputs": [
        {
          "indexed": true,
          "internalType": "address",
          "name": "user",
          "type": "address"
        }
      ],
      "name": "AddedBlackList",
      "type": "event"
    },
    {
      "anonymous": false,
      "inputs": [
        {
          "indexed": true,
          "internalType": "address",
          "name": "owner",
          "type": "address"
        },
        {
          "indexed": true,
          "internalType": "address",
          "name": "spender",
          "type": "address"
        },
        {
          "indexed": false,
          "internalType": "uint256",
          "name": "value",
          "type": "uint256"
        }
      ],
      "name": "Approval",
      "type": "event"
    },
    {
      "anonymous": false,
      "inputs": [
        {
          "indexed": true,
          "internalType": "address",
          "name": "blackListedUser",
          "type": "address"
        },
        {
          "indexed": false,
          "internalType": "uint256",
          "name": "dirtyFunds",
          "type": "uint256"
        }
      ],
      "name": "DestroyedBlackFunds",
      "type": "event"
    },
    {
      "anonymous": false,
      "inputs": [
        {
          "indexed": true,
          "internalType": "address",
          "name": "minter",
          "type": "address"
        }
      ],
      "name": "MinterChanged",
      "type": "event"
    },
    {
      "anonymous": false,
      "inputs": [
        {
          "indexed": true,
          "internalType": "address",
          "name": "owner",
          "type": "address"
        }
      ],
      "name": "OwnerChanged",
      "type": "event"
    },
    {
      "anonymous": false,
      "inputs": [
        {
          "indexed": true,
          "internalType": "address",
          "name": "user",
          "type": "address"
        }
      ],
      "name": "RemovedBlackList",
      "type": "event"
    },
    {
      "anonymous": false,
      "inputs": [
        {
          "indexed": true,
          "internalType": "address",
          "name": "from",
          "type": "address"
        },
        {
          "indexed": true,
          "internalType": "address",
          "name": "to",
          "type": "address"
        },
        {
          "indexed": false,
          "internalType": "uint256",
          "name": "value",
          "type": "uint256"
        }
      ],
      "name": "Transfer",
      "type": "event"
    },
    {
      "inputs": [
        {
          "internalType": "address",
          "name": "evilUser",
          "type": "address"
        }
      ],
      "name": "addBlackList",
      "outputs": [],
      "stateMutability": "nonpayable",
      "type": "function"
    },
    {
      "inputs": [
        {
          "internalType": "address",
          "name": "account",
          "type": "address"
        },
        {
          "internalType": "address",
          "name": "spender",
          "type": "address"
        }
      ],
      "name": "allowance",
      "outputs": [
        {
          "internalType": "uint256",
          "name": "",
          "type": "uint256"
        }
      ],
      "stateMutability": "view",
      "type": "function"
    },
    {
      "inputs": [
        {
          "internalType": "address",
          "name": "",
          "type": "address"
        },
        {
          "internalType": "address",
          "name": "",
          "type": "address"
        }
      ],
      "name": "allowances",
      "outputs": [
        {
          "internalType": "uint256",
          "name": "",
          "type": "uint256"
        }
      ],
      "stateMutability": "view",
      "type": "function"
    },
    {
      "inputs": [
        {
          "internalType": "address",
          "name": "spender",
          "type": "address"
        },
        {
          "internalType": "uint256",
          "name": "amount",
          "type": "uint256"
        }
      ],
      "name": "approve",
      "outputs": [
        {
          "internalType": "bool",
          "name": "",
          "type": "bool"
        }
      ],
      "stateMutability": "nonpayable",
      "type": "function"
    },
    {
      "inputs": [
        {
          "internalType": "address",
          "name": "account",
          "type": "address"
        }
      ],
      "name": "balanceOf",
      "outputs": [
        {
          "internalType": "uint256",
          "name": "",
          "type": "uint256"
        }
      ],
      "stateMutability": "view",
      "type": "function"
    },
    {
      "inputs": [
        {
          "internalType": "address",
          "name": "",
          "type": "address"
        }
      ],
      "name": "balances",
      "outputs": [
        {
          "internalType": "uint256",
          "name": "",
          "type": "uint256"
        }
      ],
      "stateMutability": "view",
      "type": "function"
    },
    {
      "inputs": [],
      "name": "basisPointsRate",
      "outputs": [
        {
          "internalType": "uint256",
          "name": "",
          "type": "uint256"
        }
      ],
      "stateMutability": "view",
      "type": "function"
    },
    {
      "inputs": [
        {
          "internalType": "address",
          "name": "newMinter",
          "type": "address"
        }
      ],
      "name": "changeMinter",
      "outputs": [],
      "stateMutability": "nonpayable",
      "type": "function"
    },
    {
      "inputs": [
        {
          "internalType": "address",
          "name": "newOwner",
          "type": "address"
        }
      ],
      "name": "changeOwner",
      "outputs": [],
      "stateMutability": "nonpayable",
      "type": "function"
    },
    {
      "inputs": [],
      "name": "circulatingSupply",
      "outputs": [
        {
          "internalType": "uint256",
          "name": "",
          "type": "uint256"
        }
      ],
      "stateMutability": "view",
      "type": "function"
    },
    {
      "inputs": [],
      "name": "decimals",
      "outputs": [
        {
          "internalType": "uint8",
          "name": "",
          "type": "uint8"
        }
      ],
      "stateMutability": "view",
      "type": "function"
    },
    {
      "inputs": [
        {
          "internalType": "address",
          "name": "spender",
          "type": "address"
        },
        {
          "internalType": "uint256",
          "name": "subtractedValue",
          "type": "uint256"
        }
      ],
      "name": "decreaseAllowance",
      "outputs": [
        {
          "internalType": "bool",
          "name": "",
          "type": "bool"
        }
      ],
      "stateMutability": "nonpayable",
      "type": "function"
    },
    {
      "inputs": [
        {
          "internalType": "address",
          "name": "blackListedUser",
          "type": "address"
        }
      ],
      "name": "destroyBlackFunds",
      "outputs": [],
      "stateMutability": "nonpayable",
      "type": "function"
    },
    {
      "inputs": [
        {
          "internalType": "address",
          "name": "account",
          "type": "address"
        }
      ],
      "name": "getBlackListStatus",
      "outputs": [
        {
          "internalType": "bool",
          "name": "",
          "type": "bool"
        }
      ],
      "stateMutability": "view",
      "type": "function"
    },
    {
      "inputs": [
        {
          "internalType": "address",
          "name": "spender",
          "type": "address"
        },
        {
          "internalType": "uint256",
          "name": "addedValue",
          "type": "uint256"
        }
      ],
      "name": "increaseAllowance",
      "outputs": [
        {
          "internalType": "bool",
          "name": "",
          "type": "bool"
        }
      ],
      "stateMutability": "nonpayable",
      "type": "function"
    },
    {
      "inputs": [],
      "name": "maximumFee",
      "outputs": [
        {
          "internalType": "uint256",
          "name": "",
          "type": "uint256"
        }
      ],
      "stateMutability": "view",
      "type": "function"
    },
    {
      "inputs": [],
      "name": "minter",
      "outputs": [
        {
          "internalType": "address",
          "name": "",
          "type": "address"
        }
      ],
      "stateMutability": "view",
      "type": "function"
    },
    {
      "inputs": [],
      "name": "name",
      "outputs": [
        {
          "internalType": "string",
          "name": "",
          "type": "string"
        }
      ],
      "stateMutability": "view",
      "type": "function"
    },
    {
      "inputs": [],
      "name": "owner",
      "outputs": [
        {
          "internalType": "address",
          "name": "",
          "type": "address"
        }
      ],
      "stateMutability": "view",
      "type": "function"
    },
    {
      "inputs": [
        {
          "internalType": "address",
          "name": "clearedUser",
          "type": "address"
        }
      ],
      "name": "removeBlackList",
      "outputs": [],
      "stateMutability": "nonpayable",
      "type": "function"
    },
    {
      "inputs": [],
      "name": "symbol",
      "outputs": [
        {
          "internalType": "string",
          "name": "",
          "type": "string"
        }
      ],
      "stateMutability": "view",
      "type": "function"
    },
    {
      "inputs": [],
      "name": "totalSupply",
      "outputs": [
        {
          "internalType": "uint256",
          "name": "",
          "type": "uint256"
        }
      ],
      "stateMutability": "view",
      "type": "function"
    },
    {
      "inputs": [
        {
          "internalType": "address",
          "name": "to",
          "type": "address"
        },
        {
          "internalType": "uint256",
          "name": "amount",
          "type": "uint256"
        }
      ],
      "name": "transfer",
      "outputs": [
        {
          "internalType": "bool",
          "name": "",
          "type": "bool"
        }
      ],
      "stateMutability": "nonpayable",
      "type": "function"
    },
    {
      "inputs": [
        {
          "internalType": "address",
          "name": "from",
          "type": "address"
        },
        {
          "internalType": "address",
          "name": "to",
          "type": "address"
        },
        {
          "internalType": "uint256",
          "name": "amount",
          "type": "uint256"
        }
      ],
      "name": "transferFrom",
      "outputs": [
        {
          "internalType": "bool",
          "name": "",
          "type": "bool"
        }
      ],
      "stateMutability": "nonpayable",
      "type": "function"
    }
  ],
  "bytecode": "0x608060405260006009556000600a5534801561001a57600080fd5b50336000806101000a81548173ffffffffffffffffffffffffffffffffffffffff021916908373ffffffffffffffffffffffffffffffffffffffff16021790555033600160006101000a81548173ffffffffffffffffffffffffffffffffffffffff021916908373ffffffffffffffffffffffffffffffffffffffff160217905550611e58806100ab6000396000f3fe608060405234801561001057600080fd5b50600436106101585760003560e01c806359bf1abe116100c3578063a6f9dae11161007c578063a6f9dae114610405578063a9059cbb14610421578063dd62ed3e14610451578063dd644f7214610481578063e4997dc51461049f578063f3bdc228146104bb57610158565b806359bf1abe1461031b57806370a082311461034b5780638da5cb5b1461037b5780639358928b1461039957806395d89b41146103b7578063a457c2d7146103d557610158565b806327e235e31161011557806327e235e3146102335780632c4d4d1814610263578063313ce5671461027f578063353907141461029d57806339509351146102bb57806355b6ed5c146102eb57610158565b806306fdde031461015d578063075461721461017b578063095ea7b3146101995780630ecb93c0146101c957806318160ddd146101e557806323b872dd14610203575b600080fd5b6101656104d7565b6040516101729190611a33565b60405180910390f35b610183610565565b60405161019091906119fd565b60405180910390f35b6101b360048036038101906101ae91906116a8565b61058b565b6040516101c09190611a18565b60405180910390f35b6101e360048036038101906101de91906115f4565b6105a7565b005b6101ed61069d565b6040516101fa9190611b35565b60405180910390f35b61021d60048036038101906102189190611659565b6106a3565b60405161022a9190611a18565b60405180910390f35b61024d600480360381019061024891906115f4565b610755565b60405161025a9190611b35565b60405180910390f35b61027d600480360381019061027891906115f4565b61076d565b005b61028761086e565b6040516102949190611b50565b60405180910390f35b6102a5610881565b6040516102b29190611b35565b60405180910390f35b6102d560048036038101906102d091906116a8565b610887565b6040516102e29190611a18565b60405180910390f35b6103056004803603810190610300919061161d565b6108be565b6040516103129190611b35565b60405180910390f35b610335600480360381019061033091906115f4565b6108e3565b6040516103429190611a18565b60405180910390f35b610365600480360381019061036091906115f4565b610939565b6040516103729190611b35565b60405180910390f35b610383610982565b60405161039091906119fd565b60405180910390f35b6103a16109a6565b6040516103ae9190611b35565b60405180910390f35b6103bf6109ac565b6040516103cc9190611a33565b60405180910390f35b6103ef60048036038101906103ea91906116a8565b610a3a565b6040516103fc9190611a18565b60405180910390f35b61041f600480360381019061041a91906115f4565b610aba565b005b61043b600480360381019061043691906116a8565b610bed565b6040516104489190611a18565b60405180910390f35b61046b6004803603810190610466919061161d565b610c8d565b6040516104789190611b35565b60405180910390f35b610489610d14565b6040516104969190611b35565b60405180910390f35b6104b960048036038101906104b491906115f4565b610d1a565b005b6104d560048036038101906104d091906115f4565b610e10565b005b600780546104e490611d24565b80601f016020809104026020016040519081016040528092919081815260200182805461051090611d24565b801561055d5780601f106105325761010080835404028352916020019161055d565b820191906000526020600020905b81548152906001019060200180831161054057829003601f168201915b505050505081565b600160009054906101000a900473ffffffffffffffffffffffffffffffffffffffff1681565b60008033905061059c818585610f7d565b600191505092915050565b60008054906101000a900473ffffffffffffffffffffffffffffffffffffffff1673ffffffffffffffffffffffffffffffffffffffff163373ffffffffffffffffffffffffffffffffffffffff16146105ff57600080fd5b6001600b60008373ffffffffffffffffffffffffffffffffffffffff1673ffffffffffffffffffffffffffffffffffffffff16815260200190815260200160002060006101000a81548160ff0219169083151502179055508073ffffffffffffffffffffffffffffffffffffffff167f42e160154868087d6bfdc0ca23d96a1c1cfa32f1b72ba9ba27b69b98a0d819dc60405160405180910390a250565b60045481565b6000803390506106b4858285611148565b60006106de60646106d0600954876111e490919063ffffffff16565b61125390919063ffffffff16565b9050600a548111156106f057600a5490505b6000610705828661126e90919063ffffffff16565b9050600082111561073c5761073b8760008054906101000a900473ffffffffffffffffffffffffffffffffffffffff16846112bb565b5b6107478787836112bb565b600193505050509392505050565b60026020528060005260406000206000915090505481565b60008054906101000a900473ffffffffffffffffffffffffffffffffffffffff1673ffffffffffffffffffffffffffffffffffffffff163373ffffffffffffffffffffffffffffffffffffffff16146107c557600080fd5b80600160006101000a81548173ffffffffffffffffffffffffffffffffffffffff021916908373ffffffffffffffffffffffffffffffffffffffff160217905550600160009054906101000a900473ffffffffffffffffffffffffffffffffffffffff1673ffffffffffffffffffffffffffffffffffffffff167fb6b8f1859c5c352e5ffad07d0f77e384ac725512c015bd3a3ffc885831c8a42560405160405180910390a250565b600660009054906101000a900460ff1681565b600a5481565b6000803390506108b381856108ae866108a0868a610c8d565b61157890919063ffffffff16565b610f7d565b600191505092915050565b6003602052816000526040600020602052806000526040600020600091509150505481565b6000600b60008373ffffffffffffffffffffffffffffffffffffffff1673ffffffffffffffffffffffffffffffffffffffff16815260200190815260200160002060009054906101000a900460ff169050919050565b6000600260008373ffffffffffffffffffffffffffffffffffffffff1673ffffffffffffffffffffffffffffffffffffffff168152602001908152602001600020549050919050565b60008054906101000a900473ffffffffffffffffffffffffffffffffffffffff1681565b60055481565b600880546109b990611d24565b80601f01602080910402602001604051908101604052809291908181526020018280546109e590611d24565b8015610a325780601f10610a0757610100808354040283529160200191610a32565b820191906000526020600020905b815481529060010190602001808311610a1557829003601f168201915b505050505081565b6000803390506000610a4c8286610c8d565b905083811015610a91576040517f08c379a0000000000000000000000000000000000000000000000000000000008152600401610a8890611b15565b60405180910390fd5b610aae8286610aa9878561126e90919063ffffffff16565b610f7d565b60019250505092915050565b60008054906101000a900473ffffffffffffffffffffffffffffffffffffffff1673ffffffffffffffffffffffffffffffffffffffff163373ffffffffffffffffffffffffffffffffffffffff1614610b1257600080fd5b600073ffffffffffffffffffffffffffffffffffffffff168173ffffffffffffffffffffffffffffffffffffffff1614610b8757806000806101000a81548173ffffffffffffffffffffffffffffffffffffffff021916908373ffffffffffffffffffffffffffffffffffffffff1602179055505b60008054906101000a900473ffffffffffffffffffffffffffffffffffffffff1673ffffffffffffffffffffffffffffffffffffffff167fa2ea9883a321a3e97b8266c2b078bfeec6d50c711ed71f874a90d500ae2eaf3660405160405180910390a250565b600080610c186064610c0a600954866111e490919063ffffffff16565b61125390919063ffffffff16565b9050600a54811115610c2a57600a5490505b6000610c3f828561126e90919063ffffffff16565b90506000821115610c7657610c753360008054906101000a900473ffffffffffffffffffffffffffffffffffffffff16846112bb565b5b610c813386836112bb565b60019250505092915050565b6000600360008473ffffffffffffffffffffffffffffffffffffffff1673ffffffffffffffffffffffffffffffffffffffff16815260200190815260200160002060008373ffffffffffffffffffffffffffffffffffffffff1673ffffffffffffffffffffffffffffffffffffffff16815260200190815260200160002054905092915050565b60095481565b60008054906101000a900473ffffffffffffffffffffffffffffffffffffffff1673ffffffffffffffffffffffffffffffffffffffff163373ffffffffffffffffffffffffffffffffffffffff1614610d7257600080fd5b6000600b60008373ffffffffffffffffffffffffffffffffffffffff1673ffffffffffffffffffffffffffffffffffffffff16815260200190815260200160002060006101000a81548160ff0219169083151502179055508073ffffffffffffffffffffffffffffffffffffffff167fd7e9ec6e6ecd65492dce6bf513cd6867560d49544421d0783ddf06e76c24470c60405160405180910390a250565b60008054906101000a900473ffffffffffffffffffffffffffffffffffffffff1673ffffffffffffffffffffffffffffffffffffffff163373ffffffffffffffffffffffffffffffffffffffff1614610e6857600080fd5b600b60008273ffffffffffffffffffffffffffffffffffffffff1673ffffffffffffffffffffffffffffffffffffffff16815260200190815260200160002060009054906101000a900460ff16610ebe57600080fd5b6000610ec982610939565b90506000600260008473ffffffffffffffffffffffffffffffffffffffff1673ffffffffffffffffffffffffffffffffffffffff16815260200190815260200160002081905550610f258160055461126e90919063ffffffff16565b6005819055508173ffffffffffffffffffffffffffffffffffffffff167f61e6e66b0d6339b2980aecc6ccc0039736791f0ccde9ed512e789a7fbdd698c682604051610f719190611b35565b60405180910390a25050565b600073ffffffffffffffffffffffffffffffffffffffff168373ffffffffffffffffffffffffffffffffffffffff161415610fed576040517f08c379a0000000000000000000000000000000000000000000000000000000008152600401610fe490611af5565b60405180910390fd5b600073ffffffffffffffffffffffffffffffffffffffff168273ffffffffffffffffffffffffffffffffffffffff16141561105d576040517f08c379a000000000000000000000000000000000000000000000000000000000815260040161105490611a75565b60405180910390fd5b80600360008573ffffffffffffffffffffffffffffffffffffffff1673ffffffffffffffffffffffffffffffffffffffff16815260200190815260200160002060008473ffffffffffffffffffffffffffffffffffffffff1673ffffffffffffffffffffffffffffffffffffffff168152602001908152602001600020819055508173ffffffffffffffffffffffffffffffffffffffff168373ffffffffffffffffffffffffffffffffffffffff167f8c5be1e5ebec7d5bd14f71427d1e84f3dd0314c0f7b2291e5b200ac8c7c3b9258360405161113b9190611b35565b60405180910390a3505050565b60006111548484610c8d565b90507fffffffffffffffffffffffffffffffffffffffffffffffffffffffffffffffff81146111de57818110156111c0576040517f08c379a00000000000000000000000000000000000000000000000000000000081526004016111b790611a95565b60405180910390fd5b6111dd84846111d8858561126e90919063ffffffff16565b610f7d565b5b50505050565b6000808314156111f7576000905061124d565b600082846112059190611c0e565b90508284826112149190611bdd565b14611248577f4e487b7100000000000000000000000000000000000000000000000000000000600052600160045260246000fd5b809150505b92915050565b60008082846112629190611bdd565b90508091505092915050565b6000828211156112a7577f4e487b7100000000000000000000000000000000000000000000000000000000600052600160045260246000fd5b81836112b39190611c68565b905092915050565b600073ffffffffffffffffffffffffffffffffffffffff168373ffffffffffffffffffffffffffffffffffffffff16141561132b576040517f08c379a000000000000000000000000000000000000000000000000000000000815260040161132290611ad5565b60405180910390fd5b600073ffffffffffffffffffffffffffffffffffffffff168273ffffffffffffffffffffffffffffffffffffffff16141561139b576040517f08c379a000000000000000000000000000000000000000000000000000000000815260040161139290611a55565b60405180910390fd5b6000600260008573ffffffffffffffffffffffffffffffffffffffff1673ffffffffffffffffffffffffffffffffffffffff16815260200190815260200160002054905081811015611422576040517f08c379a000000000000000000000000000000000000000000000000000000000815260040161141990611ab5565b60405180910390fd5b611435828261126e90919063ffffffff16565b600260008673ffffffffffffffffffffffffffffffffffffffff1673ffffffffffffffffffffffffffffffffffffffff168152602001908152602001600020819055506114ca82600260008673ffffffffffffffffffffffffffffffffffffffff1673ffffffffffffffffffffffffffffffffffffffff1681526020019081526020016000205461157890919063ffffffff16565b600260008573ffffffffffffffffffffffffffffffffffffffff1673ffffffffffffffffffffffffffffffffffffffff168152602001908152602001600020819055508273ffffffffffffffffffffffffffffffffffffffff168473ffffffffffffffffffffffffffffffffffffffff167fddf252ad1be2c89b69c2b068fc378daa952ba7f163c4a11628f55a4df523b3ef8460405161156a9190611b35565b60405180910390a350505050565b60008082846115879190611b87565b9050838110156115c0577f4e487b7100000000000000000000000000000000000000000000000000000000600052600160045260246000fd5b8091505092915050565b6000813590506115d981611df4565b92915050565b6000813590506115ee81611e0b565b92915050565b60006020828403121561160657600080fd5b6000611614848285016115ca565b91505092915050565b6000806040838503121561163057600080fd5b600061163e858286016115ca565b925050602061164f858286016115ca565b9150509250929050565b60008060006060848603121561166e57600080fd5b600061167c868287016115ca565b935050602061168d868287016115ca565b925050604061169e868287016115df565b9150509250925092565b600080604083850312156116bb57600080fd5b60006116c9858286016115ca565b92505060206116da858286016115df565b9150509250929050565b6116ed81611c9c565b82525050565b6116fc81611cae565b82525050565b600061170d82611b6b565b6117178185611b76565b9350611727818560208601611cf1565b61173081611de3565b840191505092915050565b6000611748602383611b76565b91507f45524332303a207472616e7366657220746f20746865207a65726f206164647260008301527f65737300000000000000000000000000000000000000000000000000000000006020830152604082019050919050565b60006117ae602283611b76565b91507f45524332303a20617070726f766520746f20746865207a65726f20616464726560008301527f73730000000000000000000000000000000000000000000000000000000000006020830152604082019050919050565b6000611814601d83611b76565b91507f45524332303a20696e73756666696369656e7420616c6c6f77616e63650000006000830152602082019050919050565b6000611854602683611b76565b91507f45524332303a207472616e7366657220616d6f756e742065786365656473206260008301527f616c616e636500000000000000000000000000000000000000000000000000006020830152604082019050919050565b60006118ba602583611b76565b91507f45524332303a207472616e736665722066726f6d20746865207a65726f20616460008301527f64726573730000000000000000000000000000000000000000000000000000006020830152604082019050919050565b6000611920602483611b76565b91507f45524332303a20617070726f76652066726f6d20746865207a65726f2061646460008301527f72657373000000000000000000000000000000000000000000000000000000006020830152604082019050919050565b6000611986602583611b76565b91507f45524332303a2064656372656173656420616c6c6f77616e63652062656c6f7760008301527f207a65726f0000000000000000000000000000000000000000000000000000006020830152604082019050919050565b6119e881611cda565b82525050565b6119f781611ce4565b82525050565b6000602082019050611a1260008301846116e4565b92915050565b6000602082019050611a2d60008301846116f3565b92915050565b60006020820190508181036000830152611a4d8184611702565b905092915050565b60006020820190508181036000830152611a6e8161173b565b9050919050565b60006020820190508181036000830152611a8e816117a1565b9050919050565b60006020820190508181036000830152611aae81611807565b9050919050565b60006020820190508181036000830152611ace81611847565b9050919050565b60006020820190508181036000830152611aee816118ad565b9050919050565b60006020820190508181036000830152611b0e81611913565b9050919050565b60006020820190508181036000830152611b2e81611979565b9050919050565b6000602082019050611b4a60008301846119df565b92915050565b6000602082019050611b6560008301846119ee565b92915050565b600081519050919050565b600082825260208201905092915050565b6000611b9282611cda565b9150611b9d83611cda565b9250827fffffffffffffffffffffffffffffffffffffffffffffffffffffffffffffffff03821115611bd257611bd1611d56565b5b828201905092915050565b6000611be882611cda565b9150611bf383611cda565b925082611c0357611c02611d85565b5b828204905092915050565b6000611c1982611cda565b9150611c2483611cda565b9250817fffffffffffffffffffffffffffffffffffffffffffffffffffffffffffffffff0483118215151615611c5d57611c5c611d56565b5b828202905092915050565b6000611c7382611cda565b9150611c7e83611cda565b925082821015611c9157611c90611d56565b5b828203905092915050565b6000611ca782611cba565b9050919050565b60008115159050919050565b600073ffffffffffffffffffffffffffffffffffffffff82169050919050565b6000819050919050565b600060ff82169050919050565b60005b83811015611d0f578082015181840152602081019050611cf4565b83811115611d1e576000848401525b50505050565b60006002820490506001821680611d3c57607f821691505b60208210811415611d5057611d4f611db4565b5b50919050565b7f4e487b7100000000000000000000000000000000000000000000000000000000600052601160045260246000fd5b7f4e487b7100000000000000000000000000000000000000000000000000000000600052601260045260246000fd5b7f4e487b7100000000000000000000000000000000000000000000000000000000600052602260045260246000fd5b6000601f19601f8301169050919050565b611dfd81611c9c565b8114611e0857600080fd5b50565b611e1481611cda565b8114611e1f57600080fd5b5056fea2646970667358221220b334d582e853e7c20d5c6941470d4c4887450b1a8f60425475931b84770075ba64736f6c63430008000033",
  "linkReferences": {},
  "deployedLinkReferences": {}
}