{
  "_format": "hh-sol-artifact-1",
  "contractName": "ERC20",
  "sourceName": "contracts/LiaizonToken.sol",
  "abi": [
    {
      "anonymous": false,
      "inputs": [
        {
          "indexed": true,
          "internalType": "address",
          "name": "owner",
          "type": "address"
        },
        {
          "indexed": true,
          "internalType": "address",
          "name": "spender",
          "type": "address"
        },
        {
          "indexed": false,
          "internalType": "uint256",
          "name": "value",
          "type": "uint256"
        }
      ],
      "name": "Approval",
      "type": "event"
    },
    {
      "anonymous": false,
      "inputs": [
        {
          "indexed": true,
          "internalType": "address",
          "name": "minter",
          "type": "address"
        }
      ],
      "name": "MinterChanged",
      "type": "event"
    },
    {
      "anonymous": false,
      "inputs": [
        {
          "indexed": true,
          "internalType": "address",
          "name": "owner",
          "type": "address"
        }
      ],
      "name": "OwnerChanged",
      "type": "event"
    },
    {
      "anonymous": false,
      "inputs": [
        {
          "indexed": true,
          "internalType": "address",
          "name": "from",
          "type": "address"
        },
        {
          "indexed": true,
          "internalType": "address",
          "name": "to",
          "type": "address"
        },
        {
          "indexed": false,
          "internalType": "uint256",
          "name": "value",
          "type": "uint256"
        }
      ],
      "name": "Transfer",
      "type": "event"
    },
    {
      "inputs": [
        {
          "internalType": "address",
          "name": "account",
          "type": "address"
        },
        {
          "internalType": "address",
          "name": "spender",
          "type": "address"
        }
      ],
      "name": "allowance",
      "outputs": [
        {
          "internalType": "uint256",
          "name": "",
          "type": "uint256"
        }
      ],
      "stateMutability": "view",
      "type": "function"
    },
    {
      "inputs": [
        {
          "internalType": "address",
          "name": "",
          "type": "address"
        },
        {
          "internalType": "address",
          "name": "",
          "type": "address"
        }
      ],
      "name": "allowances",
      "outputs": [
        {
          "internalType": "uint256",
          "name": "",
          "type": "uint256"
        }
      ],
      "stateMutability": "view",
      "type": "function"
    },
    {
      "inputs": [
        {
          "internalType": "address",
          "name": "spender",
          "type": "address"
        },
        {
          "internalType": "uint256",
          "name": "amount",
          "type": "uint256"
        }
      ],
      "name": "approve",
      "outputs": [
        {
          "internalType": "bool",
          "name": "",
          "type": "bool"
        }
      ],
      "stateMutability": "nonpayable",
      "type": "function"
    },
    {
      "inputs": [
        {
          "internalType": "address",
          "name": "account",
          "type": "address"
        }
      ],
      "name": "balanceOf",
      "outputs": [
        {
          "internalType": "uint256",
          "name": "",
          "type": "uint256"
        }
      ],
      "stateMutability": "view",
      "type": "function"
    },
    {
      "inputs": [
        {
          "internalType": "address",
          "name": "",
          "type": "address"
        }
      ],
      "name": "balances",
      "outputs": [
        {
          "internalType": "uint256",
          "name": "",
          "type": "uint256"
        }
      ],
      "stateMutability": "view",
      "type": "function"
    },
    {
      "inputs": [],
      "name": "basisPointsRate",
      "outputs": [
        {
          "internalType": "uint256",
          "name": "",
          "type": "uint256"
        }
      ],
      "stateMutability": "view",
      "type": "function"
    },
    {
      "inputs": [
        {
          "internalType": "address",
          "name": "newMinter",
          "type": "address"
        }
      ],
      "name": "changeMinter",
      "outputs": [],
      "stateMutability": "nonpayable",
      "type": "function"
    },
    {
      "inputs": [
        {
          "internalType": "address",
          "name": "newOwner",
          "type": "address"
        }
      ],
      "name": "changeOwner",
      "outputs": [],
      "stateMutability": "nonpayable",
      "type": "function"
    },
    {
      "inputs": [],
      "name": "circulatingSupply",
      "outputs": [
        {
          "internalType": "uint256",
          "name": "",
          "type": "uint256"
        }
      ],
      "stateMutability": "view",
      "type": "function"
    },
    {
      "inputs": [],
      "name": "decimals",
      "outputs": [
        {
          "internalType": "uint8",
          "name": "",
          "type": "uint8"
        }
      ],
      "stateMutability": "view",
      "type": "function"
    },
    {
      "inputs": [
        {
          "internalType": "address",
          "name": "spender",
          "type": "address"
        },
        {
          "internalType": "uint256",
          "name": "subtractedValue",
          "type": "uint256"
        }
      ],
      "name": "decreaseAllowance",
      "outputs": [
        {
          "internalType": "bool",
          "name": "",
          "type": "bool"
        }
      ],
      "stateMutability": "nonpayable",
      "type": "function"
    },
    {
      "inputs": [
        {
          "internalType": "address",
          "name": "spender",
          "type": "address"
        },
        {
          "internalType": "uint256",
          "name": "addedValue",
          "type": "uint256"
        }
      ],
      "name": "increaseAllowance",
      "outputs": [
        {
          "internalType": "bool",
          "name": "",
          "type": "bool"
        }
      ],
      "stateMutability": "nonpayable",
      "type": "function"
    },
    {
      "inputs": [],
      "name": "maximumFee",
      "outputs": [
        {
          "internalType": "uint256",
          "name": "",
          "type": "uint256"
        }
      ],
      "stateMutability": "view",
      "type": "function"
    },
    {
      "inputs": [],
      "name": "minter",
      "outputs": [
        {
          "internalType": "address",
          "name": "",
          "type": "address"
        }
      ],
      "stateMutability": "view",
      "type": "function"
    },
    {
      "inputs": [],
      "name": "name",
      "outputs": [
        {
          "internalType": "string",
          "name": "",
          "type": "string"
        }
      ],
      "stateMutability": "view",
      "type": "function"
    },
    {
      "inputs": [],
      "name": "owner",
      "outputs": [
        {
          "internalType": "address",
          "name": "",
          "type": "address"
        }
      ],
      "stateMutability": "view",
      "type": "function"
    },
    {
      "inputs": [],
      "name": "symbol",
      "outputs": [
        {
          "internalType": "string",
          "name": "",
          "type": "string"
        }
      ],
      "stateMutability": "view",
      "type": "function"
    },
    {
      "inputs": [],
      "name": "totalSupply",
      "outputs": [
        {
          "internalType": "uint256",
          "name": "",
          "type": "uint256"
        }
      ],
      "stateMutability": "view",
      "type": "function"
    },
    {
      "inputs": [
        {
          "internalType": "address",
          "name": "to",
          "type": "address"
        },
        {
          "internalType": "uint256",
          "name": "amount",
          "type": "uint256"
        }
      ],
      "name": "transfer",
      "outputs": [
        {
          "internalType": "bool",
          "name": "",
          "type": "bool"
        }
      ],
      "stateMutability": "nonpayable",
      "type": "function"
    },
    {
      "inputs": [
        {
          "internalType": "address",
          "name": "from",
          "type": "address"
        },
        {
          "internalType": "address",
          "name": "to",
          "type": "address"
        },
        {
          "internalType": "uint256",
          "name": "amount",
          "type": "uint256"
        }
      ],
      "name": "transferFrom",
      "outputs": [
        {
          "internalType": "bool",
          "name": "",
          "type": "bool"
        }
      ],
      "stateMutability": "nonpayable",
      "type": "function"
    }
  ],
  "bytecode": "0x608060405260006009556000600a5534801561001a57600080fd5b50336000806101000a81548173ffffffffffffffffffffffffffffffffffffffff021916908373ffffffffffffffffffffffffffffffffffffffff16021790555033600160006101000a81548173ffffffffffffffffffffffffffffffffffffffff021916908373ffffffffffffffffffffffffffffffffffffffff1602179055506119f9806100ab6000396000f3fe608060405234801561001057600080fd5b506004361061012c5760003560e01c806355b6ed5c116100ad578063a457c2d711610071578063a457c2d71461035d578063a6f9dae11461038d578063a9059cbb146103a9578063dd62ed3e146103d9578063dd644f72146104095761012c565b806355b6ed5c146102a357806370a08231146102d35780638da5cb5b146103035780639358928b1461032157806395d89b411461033f5761012c565b806327e235e3116100f457806327e235e3146101eb5780632c4d4d181461021b578063313ce56714610237578063353907141461025557806339509351146102735761012c565b806306fdde0314610131578063075461721461014f578063095ea7b31461016d57806318160ddd1461019d57806323b872dd146101bb575b600080fd5b610139610427565b60405161014691906115d4565b60405180910390f35b6101576104b5565b604051610164919061159e565b60405180910390f35b61018760048036038101906101829190611249565b6104db565b60405161019491906115b9565b60405180910390f35b6101a56104f7565b6040516101b291906116d6565b60405180910390f35b6101d560048036038101906101d091906111fa565b6104fd565b6040516101e291906115b9565b60405180910390f35b61020560048036038101906102009190611195565b6105af565b60405161021291906116d6565b60405180910390f35b61023560048036038101906102309190611195565b6105c7565b005b61023f6106c8565b60405161024c91906116f1565b60405180910390f35b61025d6106db565b60405161026a91906116d6565b60405180910390f35b61028d60048036038101906102889190611249565b6106e1565b60405161029a91906115b9565b60405180910390f35b6102bd60048036038101906102b891906111be565b610718565b6040516102ca91906116d6565b60405180910390f35b6102ed60048036038101906102e89190611195565b61073d565b6040516102fa91906116d6565b60405180910390f35b61030b610786565b604051610318919061159e565b60405180910390f35b6103296107aa565b60405161033691906116d6565b60405180910390f35b6103476107b0565b60405161035491906115d4565b60405180910390f35b61037760048036038101906103729190611249565b61083e565b60405161038491906115b9565b60405180910390f35b6103a760048036038101906103a29190611195565b6108be565b005b6103c360048036038101906103be9190611249565b6109f1565b6040516103d091906115b9565b60405180910390f35b6103f360048036038101906103ee91906111be565b610a91565b60405161040091906116d6565b60405180910390f35b610411610b18565b60405161041e91906116d6565b60405180910390f35b60078054610434906118c5565b80601f0160208091040260200160405190810160405280929190818152602001828054610460906118c5565b80156104ad5780601f10610482576101008083540402835291602001916104ad565b820191906000526020600020905b81548152906001019060200180831161049057829003601f168201915b505050505081565b600160009054906101000a900473ffffffffffffffffffffffffffffffffffffffff1681565b6000803390506104ec818585610b1e565b600191505092915050565b60045481565b60008033905061050e858285610ce9565b6000610538606461052a60095487610d8590919063ffffffff16565b610df490919063ffffffff16565b9050600a5481111561054a57600a5490505b600061055f8286610e0f90919063ffffffff16565b90506000821115610596576105958760008054906101000a900473ffffffffffffffffffffffffffffffffffffffff1684610e5c565b5b6105a1878783610e5c565b600193505050509392505050565b60026020528060005260406000206000915090505481565b60008054906101000a900473ffffffffffffffffffffffffffffffffffffffff1673ffffffffffffffffffffffffffffffffffffffff163373ffffffffffffffffffffffffffffffffffffffff161461061f57600080fd5b80600160006101000a81548173ffffffffffffffffffffffffffffffffffffffff021916908373ffffffffffffffffffffffffffffffffffffffff160217905550600160009054906101000a900473ffffffffffffffffffffffffffffffffffffffff1673ffffffffffffffffffffffffffffffffffffffff167fb6b8f1859c5c352e5ffad07d0f77e384ac725512c015bd3a3ffc885831c8a42560405160405180910390a250565b600660009054906101000a900460ff1681565b600a5481565b60008033905061070d8185610708866106fa868a610a91565b61111990919063ffffffff16565b610b1e565b600191505092915050565b6003602052816000526040600020602052806000526040600020600091509150505481565b6000600260008373ffffffffffffffffffffffffffffffffffffffff1673ffffffffffffffffffffffffffffffffffffffff168152602001908152602001600020549050919050565b60008054906101000a900473ffffffffffffffffffffffffffffffffffffffff1681565b60055481565b600880546107bd906118c5565b80601f01602080910402602001604051908101604052809291908181526020018280546107e9906118c5565b80156108365780601f1061080b57610100808354040283529160200191610836565b820191906000526020600020905b81548152906001019060200180831161081957829003601f168201915b505050505081565b60008033905060006108508286610a91565b905083811015610895576040517f08c379a000000000000000000000000000000000000000000000000000000000815260040161088c906116b6565b60405180910390fd5b6108b282866108ad8785610e0f90919063ffffffff16565b610b1e565b60019250505092915050565b60008054906101000a900473ffffffffffffffffffffffffffffffffffffffff1673ffffffffffffffffffffffffffffffffffffffff163373ffffffffffffffffffffffffffffffffffffffff161461091657600080fd5b600073ffffffffffffffffffffffffffffffffffffffff168173ffffffffffffffffffffffffffffffffffffffff161461098b57806000806101000a81548173ffffffffffffffffffffffffffffffffffffffff021916908373ffffffffffffffffffffffffffffffffffffffff1602179055505b60008054906101000a900473ffffffffffffffffffffffffffffffffffffffff1673ffffffffffffffffffffffffffffffffffffffff167fa2ea9883a321a3e97b8266c2b078bfeec6d50c711ed71f874a90d500ae2eaf3660405160405180910390a250565b600080610a1c6064610a0e60095486610d8590919063ffffffff16565b610df490919063ffffffff16565b9050600a54811115610a2e57600a5490505b6000610a438285610e0f90919063ffffffff16565b90506000821115610a7a57610a793360008054906101000a900473ffffffffffffffffffffffffffffffffffffffff1684610e5c565b5b610a85338683610e5c565b60019250505092915050565b6000600360008473ffffffffffffffffffffffffffffffffffffffff1673ffffffffffffffffffffffffffffffffffffffff16815260200190815260200160002060008373ffffffffffffffffffffffffffffffffffffffff1673ffffffffffffffffffffffffffffffffffffffff16815260200190815260200160002054905092915050565b60095481565b600073ffffffffffffffffffffffffffffffffffffffff168373ffffffffffffffffffffffffffffffffffffffff161415610b8e576040517f08c379a0000000000000000000000000000000000000000000000000000000008152600401610b8590611696565b60405180910390fd5b600073ffffffffffffffffffffffffffffffffffffffff168273ffffffffffffffffffffffffffffffffffffffff161415610bfe576040517f08c379a0000000000000000000000000000000000000000000000000000000008152600401610bf590611616565b60405180910390fd5b80600360008573ffffffffffffffffffffffffffffffffffffffff1673ffffffffffffffffffffffffffffffffffffffff16815260200190815260200160002060008473ffffffffffffffffffffffffffffffffffffffff1673ffffffffffffffffffffffffffffffffffffffff168152602001908152602001600020819055508173ffffffffffffffffffffffffffffffffffffffff168373ffffffffffffffffffffffffffffffffffffffff167f8c5be1e5ebec7d5bd14f71427d1e84f3dd0314c0f7b2291e5b200ac8c7c3b92583604051610cdc91906116d6565b60405180910390a3505050565b6000610cf58484610a91565b90507fffffffffffffffffffffffffffffffffffffffffffffffffffffffffffffffff8114610d7f5781811015610d61576040517f08c379a0000000000000000000000000000000000000000000000000000000008152600401610d5890611636565b60405180910390fd5b610d7e8484610d798585610e0f90919063ffffffff16565b610b1e565b5b50505050565b600080831415610d985760009050610dee565b60008284610da691906117af565b9050828482610db5919061177e565b14610de9577f4e487b7100000000000000000000000000000000000000000000000000000000600052600160045260246000fd5b809150505b92915050565b6000808284610e03919061177e565b90508091505092915050565b600082821115610e48577f4e487b7100000000000000000000000000000000000000000000000000000000600052600160045260246000fd5b8183610e549190611809565b905092915050565b600073ffffffffffffffffffffffffffffffffffffffff168373ffffffffffffffffffffffffffffffffffffffff161415610ecc576040517f08c379a0000000000000000000000000000000000000000000000000000000008152600401610ec390611676565b60405180910390fd5b600073ffffffffffffffffffffffffffffffffffffffff168273ffffffffffffffffffffffffffffffffffffffff161415610f3c576040517f08c379a0000000000000000000000000000000000000000000000000000000008152600401610f33906115f6565b60405180910390fd5b6000600260008573ffffffffffffffffffffffffffffffffffffffff1673ffffffffffffffffffffffffffffffffffffffff16815260200190815260200160002054905081811015610fc3576040517f08c379a0000000000000000000000000000000000000000000000000000000008152600401610fba90611656565b60405180910390fd5b610fd68282610e0f90919063ffffffff16565b600260008673ffffffffffffffffffffffffffffffffffffffff1673ffffffffffffffffffffffffffffffffffffffff1681526020019081526020016000208190555061106b82600260008673ffffffffffffffffffffffffffffffffffffffff1673ffffffffffffffffffffffffffffffffffffffff1681526020019081526020016000205461111990919063ffffffff16565b600260008573ffffffffffffffffffffffffffffffffffffffff1673ffffffffffffffffffffffffffffffffffffffff168152602001908152602001600020819055508273ffffffffffffffffffffffffffffffffffffffff168473ffffffffffffffffffffffffffffffffffffffff167fddf252ad1be2c89b69c2b068fc378daa952ba7f163c4a11628f55a4df523b3ef8460405161110b91906116d6565b60405180910390a350505050565b60008082846111289190611728565b905083811015611161577f4e487b7100000000000000000000000000000000000000000000000000000000600052600160045260246000fd5b8091505092915050565b60008135905061117a81611995565b92915050565b60008135905061118f816119ac565b92915050565b6000602082840312156111a757600080fd5b60006111b58482850161116b565b91505092915050565b600080604083850312156111d157600080fd5b60006111df8582860161116b565b92505060206111f08582860161116b565b9150509250929050565b60008060006060848603121561120f57600080fd5b600061121d8682870161116b565b935050602061122e8682870161116b565b925050604061123f86828701611180565b9150509250925092565b6000806040838503121561125c57600080fd5b600061126a8582860161116b565b925050602061127b85828601611180565b9150509250929050565b61128e8161183d565b82525050565b61129d8161184f565b82525050565b60006112ae8261170c565b6112b88185611717565b93506112c8818560208601611892565b6112d181611984565b840191505092915050565b60006112e9602383611717565b91507f45524332303a207472616e7366657220746f20746865207a65726f206164647260008301527f65737300000000000000000000000000000000000000000000000000000000006020830152604082019050919050565b600061134f602283611717565b91507f45524332303a20617070726f766520746f20746865207a65726f20616464726560008301527f73730000000000000000000000000000000000000000000000000000000000006020830152604082019050919050565b60006113b5601d83611717565b91507f45524332303a20696e73756666696369656e7420616c6c6f77616e63650000006000830152602082019050919050565b60006113f5602683611717565b91507f45524332303a207472616e7366657220616d6f756e742065786365656473206260008301527f616c616e636500000000000000000000000000000000000000000000000000006020830152604082019050919050565b600061145b602583611717565b91507f45524332303a207472616e736665722066726f6d20746865207a65726f20616460008301527f64726573730000000000000000000000000000000000000000000000000000006020830152604082019050919050565b60006114c1602483611717565b91507f45524332303a20617070726f76652066726f6d20746865207a65726f2061646460008301527f72657373000000000000000000000000000000000000000000000000000000006020830152604082019050919050565b6000611527602583611717565b91507f45524332303a2064656372656173656420616c6c6f77616e63652062656c6f7760008301527f207a65726f0000000000000000000000000000000000000000000000000000006020830152604082019050919050565b6115898161187b565b82525050565b61159881611885565b82525050565b60006020820190506115b36000830184611285565b92915050565b60006020820190506115ce6000830184611294565b92915050565b600060208201905081810360008301526115ee81846112a3565b905092915050565b6000602082019050818103600083015261160f816112dc565b9050919050565b6000602082019050818103600083015261162f81611342565b9050919050565b6000602082019050818103600083015261164f816113a8565b9050919050565b6000602082019050818103600083015261166f816113e8565b9050919050565b6000602082019050818103600083015261168f8161144e565b9050919050565b600060208201905081810360008301526116af816114b4565b9050919050565b600060208201905081810360008301526116cf8161151a565b9050919050565b60006020820190506116eb6000830184611580565b92915050565b6000602082019050611706600083018461158f565b92915050565b600081519050919050565b600082825260208201905092915050565b60006117338261187b565b915061173e8361187b565b9250827fffffffffffffffffffffffffffffffffffffffffffffffffffffffffffffffff03821115611773576117726118f7565b5b828201905092915050565b60006117898261187b565b91506117948361187b565b9250826117a4576117a3611926565b5b828204905092915050565b60006117ba8261187b565b91506117c58361187b565b9250817fffffffffffffffffffffffffffffffffffffffffffffffffffffffffffffffff04831182151516156117fe576117fd6118f7565b5b828202905092915050565b60006118148261187b565b915061181f8361187b565b925082821015611832576118316118f7565b5b828203905092915050565b60006118488261185b565b9050919050565b60008115159050919050565b600073ffffffffffffffffffffffffffffffffffffffff82169050919050565b6000819050919050565b600060ff82169050919050565b60005b838110156118b0578082015181840152602081019050611895565b838111156118bf576000848401525b50505050565b600060028204905060018216806118dd57607f821691505b602082108114156118f1576118f0611955565b5b50919050565b7f4e487b7100000000000000000000000000000000000000000000000000000000600052601160045260246000fd5b7f4e487b7100000000000000000000000000000000000000000000000000000000600052601260045260246000fd5b7f4e487b7100000000000000000000000000000000000000000000000000000000600052602260045260246000fd5b6000601f19601f8301169050919050565b61199e8161183d565b81146119a957600080fd5b50565b6119b58161187b565b81146119c057600080fd5b5056fea2646970667358221220bda5b651b142479074a7c3263fbf68646f38f68360ddb8be152f2b90d4709e3164736f6c63430008000033",
  "linkReferences": {},
  "deployedLinkReferences": {}
}