{
  "_format": "hh-sol-artifact-1",
  "contractName": "ERC20",
  "sourceName": "contracts/ERC20.sol",
  "abi": [
    {
      "anonymous": false,
      "inputs": [
        {
          "indexed": true,
          "internalType": "address",
          "name": "owner",
          "type": "address"
        },
        {
          "indexed": true,
          "internalType": "address",
          "name": "spender",
          "type": "address"
        },
        {
          "indexed": false,
          "internalType": "uint256",
          "name": "value",
          "type": "uint256"
        }
      ],
      "name": "Approval",
      "type": "event"
    },
    {
      "anonymous": false,
      "inputs": [
        {
          "indexed": true,
          "internalType": "address",
          "name": "minter",
          "type": "address"
        }
      ],
      "name": "MinterChanged",
      "type": "event"
    },
    {
      "anonymous": false,
      "inputs": [
        {
          "indexed": true,
          "internalType": "address",
          "name": "owner",
          "type": "address"
        }
      ],
      "name": "OwnerChanged",
      "type": "event"
    },
    {
      "anonymous": false,
      "inputs": [
        {
          "indexed": true,
          "internalType": "address",
          "name": "from",
          "type": "address"
        },
        {
          "indexed": true,
          "internalType": "address",
          "name": "to",
          "type": "address"
        },
        {
          "indexed": false,
          "internalType": "uint256",
          "name": "value",
          "type": "uint256"
        }
      ],
      "name": "Transfer",
      "type": "event"
    },
    {
      "inputs": [
        {
          "internalType": "address",
          "name": "account",
          "type": "address"
        },
        {
          "internalType": "address",
          "name": "spender",
          "type": "address"
        }
      ],
      "name": "allowance",
      "outputs": [
        {
          "internalType": "uint256",
          "name": "",
          "type": "uint256"
        }
      ],
      "stateMutability": "view",
      "type": "function"
    },
    {
      "inputs": [
        {
          "internalType": "address",
          "name": "",
          "type": "address"
        },
        {
          "internalType": "address",
          "name": "",
          "type": "address"
        }
      ],
      "name": "allowances",
      "outputs": [
        {
          "internalType": "uint256",
          "name": "",
          "type": "uint256"
        }
      ],
      "stateMutability": "view",
      "type": "function"
    },
    {
      "inputs": [
        {
          "internalType": "address",
          "name": "spender",
          "type": "address"
        },
        {
          "internalType": "uint256",
          "name": "amount",
          "type": "uint256"
        }
      ],
      "name": "approve",
      "outputs": [
        {
          "internalType": "bool",
          "name": "",
          "type": "bool"
        }
      ],
      "stateMutability": "nonpayable",
      "type": "function"
    },
    {
      "inputs": [
        {
          "internalType": "address",
          "name": "account",
          "type": "address"
        }
      ],
      "name": "balanceOf",
      "outputs": [
        {
          "internalType": "uint256",
          "name": "",
          "type": "uint256"
        }
      ],
      "stateMutability": "view",
      "type": "function"
    },
    {
      "inputs": [
        {
          "internalType": "address",
          "name": "",
          "type": "address"
        }
      ],
      "name": "balances",
      "outputs": [
        {
          "internalType": "uint256",
          "name": "",
          "type": "uint256"
        }
      ],
      "stateMutability": "view",
      "type": "function"
    },
    {
      "inputs": [
        {
          "internalType": "address",
          "name": "newMinter",
          "type": "address"
        }
      ],
      "name": "changeMinter",
      "outputs": [],
      "stateMutability": "nonpayable",
      "type": "function"
    },
    {
      "inputs": [
        {
          "internalType": "address",
          "name": "newOwner",
          "type": "address"
        }
      ],
      "name": "changeOwner",
      "outputs": [],
      "stateMutability": "nonpayable",
      "type": "function"
    },
    {
      "inputs": [],
      "name": "circulatingSupply",
      "outputs": [
        {
          "internalType": "uint256",
          "name": "",
          "type": "uint256"
        }
      ],
      "stateMutability": "view",
      "type": "function"
    },
    {
      "inputs": [],
      "name": "decimals",
      "outputs": [
        {
          "internalType": "uint8",
          "name": "",
          "type": "uint8"
        }
      ],
      "stateMutability": "view",
      "type": "function"
    },
    {
      "inputs": [
        {
          "internalType": "address",
          "name": "spender",
          "type": "address"
        },
        {
          "internalType": "uint256",
          "name": "subtractedValue",
          "type": "uint256"
        }
      ],
      "name": "decreaseAllowance",
      "outputs": [
        {
          "internalType": "bool",
          "name": "",
          "type": "bool"
        }
      ],
      "stateMutability": "nonpayable",
      "type": "function"
    },
    {
      "inputs": [
        {
          "internalType": "address",
          "name": "spender",
          "type": "address"
        },
        {
          "internalType": "uint256",
          "name": "addedValue",
          "type": "uint256"
        }
      ],
      "name": "increaseAllowance",
      "outputs": [
        {
          "internalType": "bool",
          "name": "",
          "type": "bool"
        }
      ],
      "stateMutability": "nonpayable",
      "type": "function"
    },
    {
      "inputs": [],
      "name": "minter",
      "outputs": [
        {
          "internalType": "address",
          "name": "",
          "type": "address"
        }
      ],
      "stateMutability": "view",
      "type": "function"
    },
    {
      "inputs": [],
      "name": "name",
      "outputs": [
        {
          "internalType": "string",
          "name": "",
          "type": "string"
        }
      ],
      "stateMutability": "view",
      "type": "function"
    },
    {
      "inputs": [],
      "name": "owner",
      "outputs": [
        {
          "internalType": "address",
          "name": "",
          "type": "address"
        }
      ],
      "stateMutability": "view",
      "type": "function"
    },
    {
      "inputs": [],
      "name": "symbol",
      "outputs": [
        {
          "internalType": "string",
          "name": "",
          "type": "string"
        }
      ],
      "stateMutability": "view",
      "type": "function"
    },
    {
      "inputs": [],
      "name": "totalSupply",
      "outputs": [
        {
          "internalType": "uint256",
          "name": "",
          "type": "uint256"
        }
      ],
      "stateMutability": "view",
      "type": "function"
    },
    {
      "inputs": [
        {
          "internalType": "address",
          "name": "to",
          "type": "address"
        },
        {
          "internalType": "uint256",
          "name": "amount",
          "type": "uint256"
        }
      ],
      "name": "transfer",
      "outputs": [
        {
          "internalType": "bool",
          "name": "",
          "type": "bool"
        }
      ],
      "stateMutability": "nonpayable",
      "type": "function"
    },
    {
      "inputs": [
        {
          "internalType": "address",
          "name": "from",
          "type": "address"
        },
        {
          "internalType": "address",
          "name": "to",
          "type": "address"
        },
        {
          "internalType": "uint256",
          "name": "amount",
          "type": "uint256"
        }
      ],
      "name": "transferFrom",
      "outputs": [
        {
          "internalType": "bool",
          "name": "",
          "type": "bool"
        }
      ],
      "stateMutability": "nonpayable",
      "type": "function"
    }
  ],
  "bytecode": "0x608060405234801561001057600080fd5b50336000806101000a81548173ffffffffffffffffffffffffffffffffffffffff021916908373ffffffffffffffffffffffffffffffffffffffff16021790555033600160006101000a81548173ffffffffffffffffffffffffffffffffffffffff021916908373ffffffffffffffffffffffffffffffffffffffff160217905550611744806100a16000396000f3fe608060405234801561001057600080fd5b50600436106101165760003560e01c806355b6ed5c116100a257806395d89b411161007157806395d89b411461030b578063a457c2d714610329578063a6f9dae114610359578063a9059cbb14610375578063dd62ed3e146103a557610116565b806355b6ed5c1461026f57806370a082311461029f5780638da5cb5b146102cf5780639358928b146102ed57610116565b806323b872dd116100e957806323b872dd146101a557806327e235e3146101d55780632c4d4d1814610205578063313ce56714610221578063395093511461023f57610116565b806306fdde031461011b5780630754617214610139578063095ea7b31461015757806318160ddd14610187575b600080fd5b6101236103d5565b60405161013091906113d9565b60405180910390f35b610141610463565b60405161014e91906113a3565b60405180910390f35b610171600480360381019061016c919061104e565b610489565b60405161017e91906113be565b60405180910390f35b61018f6104a5565b60405161019c91906114db565b60405180910390f35b6101bf60048036038101906101ba9190610fff565b6104ab565b6040516101cc91906113be565b60405180910390f35b6101ef60048036038101906101ea9190610f9a565b6104d3565b6040516101fc91906114db565b60405180910390f35b61021f600480360381019061021a9190610f9a565b6104eb565b005b6102296105ec565b60405161023691906114f6565b60405180910390f35b6102596004803603810190610254919061104e565b6105ff565b60405161026691906113be565b60405180910390f35b61028960048036038101906102849190610fc3565b610636565b60405161029691906114db565b60405180910390f35b6102b960048036038101906102b49190610f9a565b61065b565b6040516102c691906114db565b60405180910390f35b6102d76106a4565b6040516102e491906113a3565b60405180910390f35b6102f56106c8565b60405161030291906114db565b60405180910390f35b6103136106ce565b60405161032091906113d9565b60405180910390f35b610343600480360381019061033e919061104e565b61075c565b60405161035091906113be565b60405180910390f35b610373600480360381019061036e9190610f9a565b6107dc565b005b61038f600480360381019061038a919061104e565b61090f565b60405161039c91906113be565b60405180910390f35b6103bf60048036038101906103ba9190610fc3565b610926565b6040516103cc91906114db565b60405180910390f35b600780546103e29061163f565b80601f016020809104026020016040519081016040528092919081815260200182805461040e9061163f565b801561045b5780601f106104305761010080835404028352916020019161045b565b820191906000526020600020905b81548152906001019060200180831161043e57829003601f168201915b505050505081565b600160009054906101000a900473ffffffffffffffffffffffffffffffffffffffff1681565b60008033905061049a8185856109ad565b600191505092915050565b60045481565b6000803390506104bc858285610b78565b6104c7858585610c14565b60019150509392505050565b60026020528060005260406000206000915090505481565b60008054906101000a900473ffffffffffffffffffffffffffffffffffffffff1673ffffffffffffffffffffffffffffffffffffffff163373ffffffffffffffffffffffffffffffffffffffff161461054357600080fd5b80600160006101000a81548173ffffffffffffffffffffffffffffffffffffffff021916908373ffffffffffffffffffffffffffffffffffffffff160217905550600160009054906101000a900473ffffffffffffffffffffffffffffffffffffffff1673ffffffffffffffffffffffffffffffffffffffff167fb6b8f1859c5c352e5ffad07d0f77e384ac725512c015bd3a3ffc885831c8a42560405160405180910390a250565b600660009054906101000a900460ff1681565b60008033905061062b818561062686610618868a610926565b610ed190919063ffffffff16565b6109ad565b600191505092915050565b6003602052816000526040600020602052806000526040600020600091509150505481565b6000600260008373ffffffffffffffffffffffffffffffffffffffff1673ffffffffffffffffffffffffffffffffffffffff168152602001908152602001600020549050919050565b60008054906101000a900473ffffffffffffffffffffffffffffffffffffffff1681565b60055481565b600880546106db9061163f565b80601f01602080910402602001604051908101604052809291908181526020018280546107079061163f565b80156107545780601f1061072957610100808354040283529160200191610754565b820191906000526020600020905b81548152906001019060200180831161073757829003601f168201915b505050505081565b600080339050600061076e8286610926565b9050838110156107b3576040517f08c379a00000000000000000000000000000000000000000000000000000000081526004016107aa906114bb565b60405180910390fd5b6107d082866107cb8785610f2390919063ffffffff16565b6109ad565b60019250505092915050565b60008054906101000a900473ffffffffffffffffffffffffffffffffffffffff1673ffffffffffffffffffffffffffffffffffffffff163373ffffffffffffffffffffffffffffffffffffffff161461083457600080fd5b600073ffffffffffffffffffffffffffffffffffffffff168173ffffffffffffffffffffffffffffffffffffffff16146108a957806000806101000a81548173ffffffffffffffffffffffffffffffffffffffff021916908373ffffffffffffffffffffffffffffffffffffffff1602179055505b60008054906101000a900473ffffffffffffffffffffffffffffffffffffffff1673ffffffffffffffffffffffffffffffffffffffff167fa2ea9883a321a3e97b8266c2b078bfeec6d50c711ed71f874a90d500ae2eaf3660405160405180910390a250565b600061091c338484610c14565b6001905092915050565b6000600360008473ffffffffffffffffffffffffffffffffffffffff1673ffffffffffffffffffffffffffffffffffffffff16815260200190815260200160002060008373ffffffffffffffffffffffffffffffffffffffff1673ffffffffffffffffffffffffffffffffffffffff16815260200190815260200160002054905092915050565b600073ffffffffffffffffffffffffffffffffffffffff168373ffffffffffffffffffffffffffffffffffffffff161415610a1d576040517f08c379a0000000000000000000000000000000000000000000000000000000008152600401610a149061149b565b60405180910390fd5b600073ffffffffffffffffffffffffffffffffffffffff168273ffffffffffffffffffffffffffffffffffffffff161415610a8d576040517f08c379a0000000000000000000000000000000000000000000000000000000008152600401610a849061141b565b60405180910390fd5b80600360008573ffffffffffffffffffffffffffffffffffffffff1673ffffffffffffffffffffffffffffffffffffffff16815260200190815260200160002060008473ffffffffffffffffffffffffffffffffffffffff1673ffffffffffffffffffffffffffffffffffffffff168152602001908152602001600020819055508173ffffffffffffffffffffffffffffffffffffffff168373ffffffffffffffffffffffffffffffffffffffff167f8c5be1e5ebec7d5bd14f71427d1e84f3dd0314c0f7b2291e5b200ac8c7c3b92583604051610b6b91906114db565b60405180910390a3505050565b6000610b848484610926565b90507fffffffffffffffffffffffffffffffffffffffffffffffffffffffffffffffff8114610c0e5781811015610bf0576040517f08c379a0000000000000000000000000000000000000000000000000000000008152600401610be79061143b565b60405180910390fd5b610c0d8484610c088585610f2390919063ffffffff16565b6109ad565b5b50505050565b600073ffffffffffffffffffffffffffffffffffffffff168373ffffffffffffffffffffffffffffffffffffffff161415610c84576040517f08c379a0000000000000000000000000000000000000000000000000000000008152600401610c7b9061147b565b60405180910390fd5b600073ffffffffffffffffffffffffffffffffffffffff168273ffffffffffffffffffffffffffffffffffffffff161415610cf4576040517f08c379a0000000000000000000000000000000000000000000000000000000008152600401610ceb906113fb565b60405180910390fd5b6000600260008573ffffffffffffffffffffffffffffffffffffffff1673ffffffffffffffffffffffffffffffffffffffff16815260200190815260200160002054905081811015610d7b576040517f08c379a0000000000000000000000000000000000000000000000000000000008152600401610d729061145b565b60405180910390fd5b610d8e8282610f2390919063ffffffff16565b600260008673ffffffffffffffffffffffffffffffffffffffff1673ffffffffffffffffffffffffffffffffffffffff16815260200190815260200160002081905550610e2382600260008673ffffffffffffffffffffffffffffffffffffffff1673ffffffffffffffffffffffffffffffffffffffff16815260200190815260200160002054610ed190919063ffffffff16565b600260008573ffffffffffffffffffffffffffffffffffffffff1673ffffffffffffffffffffffffffffffffffffffff168152602001908152602001600020819055508273ffffffffffffffffffffffffffffffffffffffff168473ffffffffffffffffffffffffffffffffffffffff167fddf252ad1be2c89b69c2b068fc378daa952ba7f163c4a11628f55a4df523b3ef84604051610ec391906114db565b60405180910390a350505050565b6000808284610ee0919061152d565b905083811015610f19577f4e487b7100000000000000000000000000000000000000000000000000000000600052600160045260246000fd5b8091505092915050565b600082821115610f5c577f4e487b7100000000000000000000000000000000000000000000000000000000600052600160045260246000fd5b8183610f689190611583565b905092915050565b600081359050610f7f816116e0565b92915050565b600081359050610f94816116f7565b92915050565b600060208284031215610fac57600080fd5b6000610fba84828501610f70565b91505092915050565b60008060408385031215610fd657600080fd5b6000610fe485828601610f70565b9250506020610ff585828601610f70565b9150509250929050565b60008060006060848603121561101457600080fd5b600061102286828701610f70565b935050602061103386828701610f70565b925050604061104486828701610f85565b9150509250925092565b6000806040838503121561106157600080fd5b600061106f85828601610f70565b925050602061108085828601610f85565b9150509250929050565b611093816115b7565b82525050565b6110a2816115c9565b82525050565b60006110b382611511565b6110bd818561151c565b93506110cd81856020860161160c565b6110d6816116cf565b840191505092915050565b60006110ee60238361151c565b91507f45524332303a207472616e7366657220746f20746865207a65726f206164647260008301527f65737300000000000000000000000000000000000000000000000000000000006020830152604082019050919050565b600061115460228361151c565b91507f45524332303a20617070726f766520746f20746865207a65726f20616464726560008301527f73730000000000000000000000000000000000000000000000000000000000006020830152604082019050919050565b60006111ba601d8361151c565b91507f45524332303a20696e73756666696369656e7420616c6c6f77616e63650000006000830152602082019050919050565b60006111fa60268361151c565b91507f45524332303a207472616e7366657220616d6f756e742065786365656473206260008301527f616c616e636500000000000000000000000000000000000000000000000000006020830152604082019050919050565b600061126060258361151c565b91507f45524332303a207472616e736665722066726f6d20746865207a65726f20616460008301527f64726573730000000000000000000000000000000000000000000000000000006020830152604082019050919050565b60006112c660248361151c565b91507f45524332303a20617070726f76652066726f6d20746865207a65726f2061646460008301527f72657373000000000000000000000000000000000000000000000000000000006020830152604082019050919050565b600061132c60258361151c565b91507f45524332303a2064656372656173656420616c6c6f77616e63652062656c6f7760008301527f207a65726f0000000000000000000000000000000000000000000000000000006020830152604082019050919050565b61138e816115f5565b82525050565b61139d816115ff565b82525050565b60006020820190506113b8600083018461108a565b92915050565b60006020820190506113d36000830184611099565b92915050565b600060208201905081810360008301526113f381846110a8565b905092915050565b60006020820190508181036000830152611414816110e1565b9050919050565b6000602082019050818103600083015261143481611147565b9050919050565b60006020820190508181036000830152611454816111ad565b9050919050565b60006020820190508181036000830152611474816111ed565b9050919050565b6000602082019050818103600083015261149481611253565b9050919050565b600060208201905081810360008301526114b4816112b9565b9050919050565b600060208201905081810360008301526114d48161131f565b9050919050565b60006020820190506114f06000830184611385565b92915050565b600060208201905061150b6000830184611394565b92915050565b600081519050919050565b600082825260208201905092915050565b6000611538826115f5565b9150611543836115f5565b9250827fffffffffffffffffffffffffffffffffffffffffffffffffffffffffffffffff0382111561157857611577611671565b5b828201905092915050565b600061158e826115f5565b9150611599836115f5565b9250828210156115ac576115ab611671565b5b828203905092915050565b60006115c2826115d5565b9050919050565b60008115159050919050565b600073ffffffffffffffffffffffffffffffffffffffff82169050919050565b6000819050919050565b600060ff82169050919050565b60005b8381101561162a57808201518184015260208101905061160f565b83811115611639576000848401525b50505050565b6000600282049050600182168061165757607f821691505b6020821081141561166b5761166a6116a0565b5b50919050565b7f4e487b7100000000000000000000000000000000000000000000000000000000600052601160045260246000fd5b7f4e487b7100000000000000000000000000000000000000000000000000000000600052602260045260246000fd5b6000601f19601f8301169050919050565b6116e9816115b7565b81146116f457600080fd5b50565b611700816115f5565b811461170b57600080fd5b5056fea26469706673582212202672fcde8a2585c28d36e47e48bcd85445d15b6d25b3bc71d070e4ebc5987aa564736f6c63430008000033",
  "linkReferences": {},
  "deployedLinkReferences": {}
}