{
  "_format": "hh-sol-artifact-1",
  "contractName": "LiaiazonPresale",
  "sourceName": "contracts/LiaiazonPresale.sol",
  "abi": [
    {
      "inputs": [
        {
          "internalType": "uint256",
          "name": "_icoStart",
          "type": "uint256"
        },
        {
          "internalType": "uint256",
          "name": "_icoEnd",
          "type": "uint256"
        },
        {
          "internalType": "uint256",
          "name": "_tokenRate",
          "type": "uint256"
        },
        {
          "internalType": "address",
          "name": "_LiaizonToken",
          "type": "address"
        },
        {
          "internalType": "uint256",
          "name": "_fundingGoal",
          "type": "uint256"
        },
        {
          "internalType": "uint256",
          "name": "_MaticLimit",
          "type": "uint256"
        }
      ],
      "stateMutability": "nonpayable",
      "type": "constructor"
    },
    {
      "anonymous": false,
      "inputs": [],
      "name": "ICOCompleted",
      "type": "event"
    },
    {
      "anonymous": false,
      "inputs": [],
      "name": "ICOStarted",
      "type": "event"
    },
    {
      "anonymous": false,
      "inputs": [
        {
          "indexed": false,
          "internalType": "uint256",
          "name": "amount",
          "type": "uint256"
        }
      ],
      "name": "MaticExtracted",
      "type": "event"
    },
    {
      "anonymous": false,
      "inputs": [
        {
          "indexed": true,
          "internalType": "address",
          "name": "minter",
          "type": "address"
        }
      ],
      "name": "MinterChanged",
      "type": "event"
    },
    {
      "anonymous": false,
      "inputs": [
        {
          "indexed": true,
          "internalType": "address",
          "name": "owner",
          "type": "address"
        }
      ],
      "name": "OwnerChanged",
      "type": "event"
    },
    {
      "anonymous": false,
      "inputs": [],
      "name": "Pause",
      "type": "event"
    },
    {
      "anonymous": false,
      "inputs": [
        {
          "indexed": true,
          "internalType": "address",
          "name": "account",
          "type": "address"
        },
        {
          "indexed": false,
          "internalType": "uint256",
          "name": "tokensToBuy",
          "type": "uint256"
        }
      ],
      "name": "TokensBought",
      "type": "event"
    },
    {
      "anonymous": false,
      "inputs": [],
      "name": "Unpause",
      "type": "event"
    },
    {
      "inputs": [],
      "name": "LiaizonToken",
      "outputs": [
        {
          "internalType": "address",
          "name": "",
          "type": "address"
        }
      ],
      "stateMutability": "view",
      "type": "function"
    },
    {
      "inputs": [],
      "name": "MaticLimit",
      "outputs": [
        {
          "internalType": "uint256",
          "name": "",
          "type": "uint256"
        }
      ],
      "stateMutability": "view",
      "type": "function"
    },
    {
      "inputs": [],
      "name": "MaticRaised",
      "outputs": [
        {
          "internalType": "uint256",
          "name": "",
          "type": "uint256"
        }
      ],
      "stateMutability": "view",
      "type": "function"
    },
    {
      "inputs": [],
      "name": "buy",
      "outputs": [
        {
          "internalType": "bool",
          "name": "",
          "type": "bool"
        }
      ],
      "stateMutability": "payable",
      "type": "function"
    },
    {
      "inputs": [
        {
          "internalType": "address",
          "name": "newMinter",
          "type": "address"
        }
      ],
      "name": "changeMinter",
      "outputs": [],
      "stateMutability": "nonpayable",
      "type": "function"
    },
    {
      "inputs": [
        {
          "internalType": "address",
          "name": "newOwner",
          "type": "address"
        }
      ],
      "name": "changeOwner",
      "outputs": [],
      "stateMutability": "nonpayable",
      "type": "function"
    },
    {
      "inputs": [],
      "name": "extractMatic",
      "outputs": [
        {
          "internalType": "bool",
          "name": "",
          "type": "bool"
        }
      ],
      "stateMutability": "nonpayable",
      "type": "function"
    },
    {
      "inputs": [],
      "name": "fundingGoal",
      "outputs": [
        {
          "internalType": "uint256",
          "name": "",
          "type": "uint256"
        }
      ],
      "stateMutability": "view",
      "type": "function"
    },
    {
      "inputs": [],
      "name": "icoEndTime",
      "outputs": [
        {
          "internalType": "uint256",
          "name": "",
          "type": "uint256"
        }
      ],
      "stateMutability": "view",
      "type": "function"
    },
    {
      "inputs": [],
      "name": "icoStartTime",
      "outputs": [
        {
          "internalType": "uint256",
          "name": "",
          "type": "uint256"
        }
      ],
      "stateMutability": "view",
      "type": "function"
    },
    {
      "inputs": [],
      "name": "minter",
      "outputs": [
        {
          "internalType": "address",
          "name": "",
          "type": "address"
        }
      ],
      "stateMutability": "view",
      "type": "function"
    },
    {
      "inputs": [],
      "name": "owner",
      "outputs": [
        {
          "internalType": "address",
          "name": "",
          "type": "address"
        }
      ],
      "stateMutability": "view",
      "type": "function"
    },
    {
      "inputs": [],
      "name": "pause",
      "outputs": [],
      "stateMutability": "nonpayable",
      "type": "function"
    },
    {
      "inputs": [],
      "name": "paused",
      "outputs": [
        {
          "internalType": "bool",
          "name": "",
          "type": "bool"
        }
      ],
      "stateMutability": "view",
      "type": "function"
    },
    {
      "inputs": [],
      "name": "tokenRate",
      "outputs": [
        {
          "internalType": "uint256",
          "name": "",
          "type": "uint256"
        }
      ],
      "stateMutability": "view",
      "type": "function"
    },
    {
      "inputs": [],
      "name": "unpause",
      "outputs": [],
      "stateMutability": "nonpayable",
      "type": "function"
    }
  ],
  "bytecode": "0x608060405260018060146101000a81548160ff0219169083151502179055506000600960006101000a81548160ff0219169083151502179055503480156200004657600080fd5b50604051620015973803806200159783398181016040528101906200006c91906200020a565b336000806101000a81548173ffffffffffffffffffffffffffffffffffffffff021916908373ffffffffffffffffffffffffffffffffffffffff16021790555033600160006101000a81548173ffffffffffffffffffffffffffffffffffffffff021916908373ffffffffffffffffffffffffffffffffffffffff1602179055506000861415801562000100575060008514155b80156200010c57508486105b80156200011a575060008414155b8015620001545750600073ffffffffffffffffffffffffffffffffffffffff168373ffffffffffffffffffffffffffffffffffffffff1614155b801562000162575060008214155b6200016c57600080fd5b85600281905550846003819055508360048190555082600560006101000a81548173ffffffffffffffffffffffffffffffffffffffff021916908373ffffffffffffffffffffffffffffffffffffffff160217905550816007819055508060088190555050505050505062000312565b600081519050620001ed81620002de565b92915050565b6000815190506200020481620002f8565b92915050565b60008060008060008060c087890312156200022457600080fd5b60006200023489828a01620001f3565b96505060206200024789828a01620001f3565b95505060406200025a89828a01620001f3565b94505060606200026d89828a01620001dc565b93505060806200028089828a01620001f3565b92505060a06200029389828a01620001f3565b9150509295509295509295565b6000620002ad82620002b4565b9050919050565b600073ffffffffffffffffffffffffffffffffffffffff82169050919050565b6000819050919050565b620002e981620002a0565b8114620002f557600080fd5b50565b6200030381620002d4565b81146200030f57600080fd5b50565b61127580620003226000396000f3fe6080604052600436106100f35760003560e01c80636acceeb11161008a5780638da5cb5b116100595780638da5cb5b146102d2578063a6f2ae3a146102fd578063a6f9dae11461031b578063a7c3d71b14610344576100f3565b80636acceeb11461023a5780637a3a0e84146102655780637e1055b6146102905780638456cb59146102bb576100f3565b80633f4ba83a116100c65780633f4ba83a146101a25780634183924a146101b95780634a3b3e63146101e45780635c975abb1461020f576100f3565b806307546172146100f85780632c4d4d1814610123578063317118841461014c5780633c0e994a14610177575b600080fd5b34801561010457600080fd5b5061010d61036f565b60405161011a9190610f79565b60405180910390f35b34801561012f57600080fd5b5061014a60048036038101906101459190610d14565b610395565b005b34801561015857600080fd5b50610161610496565b60405161016e91906110b8565b60405180910390f35b34801561018357600080fd5b5061018c61049c565b60405161019991906110b8565b60405180910390f35b3480156101ae57600080fd5b506101b76104a2565b005b3480156101c557600080fd5b506101ce61055c565b6040516101db9190610f79565b60405180910390f35b3480156101f057600080fd5b506101f9610582565b6040516102069190610fbd565b60405180910390f35b34801561021b57600080fd5b50610224610738565b6040516102319190610fbd565b60405180910390f35b34801561024657600080fd5b5061024f61074b565b60405161025c91906110b8565b60405180910390f35b34801561027157600080fd5b5061027a610751565b60405161028791906110b8565b60405180910390f35b34801561029c57600080fd5b506102a5610757565b6040516102b291906110b8565b60405180910390f35b3480156102c757600080fd5b506102d061075d565b005b3480156102de57600080fd5b506102e7610817565b6040516102f49190610f79565b60405180910390f35b61030561083b565b6040516103129190610fbd565b60405180910390f35b34801561032757600080fd5b50610342600480360381019061033d9190610d14565b610b44565b005b34801561035057600080fd5b50610359610c77565b60405161036691906110b8565b60405180910390f35b600160009054906101000a900473ffffffffffffffffffffffffffffffffffffffff1681565b60008054906101000a900473ffffffffffffffffffffffffffffffffffffffff1673ffffffffffffffffffffffffffffffffffffffff163373ffffffffffffffffffffffffffffffffffffffff16146103ed57600080fd5b80600160006101000a81548173ffffffffffffffffffffffffffffffffffffffff021916908373ffffffffffffffffffffffffffffffffffffffff160217905550600160009054906101000a900473ffffffffffffffffffffffffffffffffffffffff1673ffffffffffffffffffffffffffffffffffffffff167fb6b8f1859c5c352e5ffad07d0f77e384ac725512c015bd3a3ffc885831c8a42560405160405180910390a250565b60045481565b60085481565b60008054906101000a900473ffffffffffffffffffffffffffffffffffffffff1673ffffffffffffffffffffffffffffffffffffffff163373ffffffffffffffffffffffffffffffffffffffff16146104fa57600080fd5b600160149054906101000a900460ff1661051357600080fd5b6000600160146101000a81548160ff0219169083151502179055507f7805862f689e2f13df9f062ff482ad3ad112aca9e0847911ed832e158c525b3360405160405180910390a1565b600560009054906101000a900473ffffffffffffffffffffffffffffffffffffffff1681565b600060035442116105c8576040517f08c379a00000000000000000000000000000000000000000000000000000000081526004016105bf90610fd8565b60405180910390fd5b60008054906101000a900473ffffffffffffffffffffffffffffffffffffffff1673ffffffffffffffffffffffffffffffffffffffff163373ffffffffffffffffffffffffffffffffffffffff161461062057600080fd5b60006006541161062f57600080fd5b7f63a44262d0ed775ba7f6d80333e0834a37d89afc0a24607b01449ca5cfaa911160405160405180910390a160008060009054906101000a900473ffffffffffffffffffffffffffffffffffffffff1673ffffffffffffffffffffffffffffffffffffffff166108fc6006549081150290604051600060405180830381858888f193505050509050806106f7576040517f08c379a00000000000000000000000000000000000000000000000000000000081526004016106ee90611098565b60405180910390fd5b7f75f10578780a4ac5d9d39722fa8115b101ed1abd53bb5eaf8f51cdf6cba795ba60065460405161072891906110b8565b60405180910390a1600191505090565b600160149054906101000a900460ff1681565b60065481565b60075481565b60035481565b60008054906101000a900473ffffffffffffffffffffffffffffffffffffffff1673ffffffffffffffffffffffffffffffffffffffff163373ffffffffffffffffffffffffffffffffffffffff16146107b557600080fd5b600160149054906101000a900460ff16156107cf57600080fd5b60018060146101000a81548160ff0219169083151502179055507f6985a02210a168e66602d3235cb6db0e70f92b3ba4d376a33c0f3d9434bff62560405160405180910390a1565b60008054906101000a900473ffffffffffffffffffffffffffffffffffffffff1681565b6000600160149054906101000a900460ff161561085757600080fd5b600254421161089b576040517f08c379a000000000000000000000000000000000000000000000000000000000815260040161089290610ff8565b60405180910390fd5b60035442106108df576040517f08c379a00000000000000000000000000000000000000000000000000000000081526004016108d690611018565b60405180910390fd5b60075460065410610925576040517f08c379a000000000000000000000000000000000000000000000000000000000815260040161091c90611038565b60405180910390fd5b60085434111561096a576040517f08c379a000000000000000000000000000000000000000000000000000000000815260040161096190611078565b60405180910390fd5b600960009054906101000a900460ff166109c6576001600960006101000a81548160ff0219169083151502179055507ffc618519ae40d98dcc0290aca36bb7869677a04294f2fef8e079935048be9f1b60405160405180910390a15b600034905060006109e260045483610c7d90919063ffffffff16565b90506109f982600654610c9890919063ffffffff16565b600681905550600560009054906101000a900473ffffffffffffffffffffffffffffffffffffffff1673ffffffffffffffffffffffffffffffffffffffff166340c10f1933836040518363ffffffff1660e01b8152600401610a5c929190610f94565b602060405180830381600087803b158015610a7657600080fd5b505af1158015610a8a573d6000803e3d6000fd5b505050506040513d601f19601f82011682018060405250810190610aae9190610d3d565b610aed576040517f08c379a0000000000000000000000000000000000000000000000000000000008152600401610ae490611058565b60405180910390fd5b3373ffffffffffffffffffffffffffffffffffffffff167f745f661b8143944fb883f50694ebed3a871e43c451d9d4bf4648a9d551d7e47a82604051610b3391906110b8565b60405180910390a260019250505090565b60008054906101000a900473ffffffffffffffffffffffffffffffffffffffff1673ffffffffffffffffffffffffffffffffffffffff163373ffffffffffffffffffffffffffffffffffffffff1614610b9c57600080fd5b600073ffffffffffffffffffffffffffffffffffffffff168173ffffffffffffffffffffffffffffffffffffffff1614610c1157806000806101000a81548173ffffffffffffffffffffffffffffffffffffffff021916908373ffffffffffffffffffffffffffffffffffffffff1602179055505b60008054906101000a900473ffffffffffffffffffffffffffffffffffffffff1673ffffffffffffffffffffffffffffffffffffffff167fa2ea9883a321a3e97b8266c2b078bfeec6d50c711ed71f874a90d500ae2eaf3660405160405180910390a250565b60025481565b6000808284610c8c919061113a565b90508091505092915050565b6000808284610ca791906110e4565b905083811015610ce0577f4e487b7100000000000000000000000000000000000000000000000000000000600052600160045260246000fd5b8091505092915050565b600081359050610cf981611211565b92915050565b600081519050610d0e81611228565b92915050565b600060208284031215610d2657600080fd5b6000610d3484828501610cea565b91505092915050565b600060208284031215610d4f57600080fd5b6000610d5d84828501610cff565b91505092915050565b610d6f8161116b565b82525050565b610d7e8161117d565b82525050565b6000610d916014836110d3565b91507f49434f206973206e6f7420636f6d706c657465640000000000000000000000006000830152602082019050919050565b6000610dd16013836110d3565b91507f49434f20686173206e6f742073746172746564000000000000000000000000006000830152602082019050919050565b6000610e116010836110d3565b91507f49434f20697320636f6d706c65746564000000000000000000000000000000006000830152602082019050919050565b6000610e516014836110d3565b91507f46756e64696e6720476f616c20526561636865640000000000000000000000006000830152602082019050919050565b6000610e916014836110d3565b91507f556e61626c6520746f206d696e7420546f6b656e0000000000000000000000006000830152602082019050919050565b6000610ed16025836110d3565b91507f4d6178696d756d20416d6f756e74206f66204d61746963204c696d697420526560008301527f61636865640000000000000000000000000000000000000000000000000000006020830152604082019050919050565b6000610f376014836110d3565b91507f4661696c656420746f2073656e64204d617469630000000000000000000000006000830152602082019050919050565b610f73816111a9565b82525050565b6000602082019050610f8e6000830184610d66565b92915050565b6000604082019050610fa96000830185610d66565b610fb66020830184610f6a565b9392505050565b6000602082019050610fd26000830184610d75565b92915050565b60006020820190508181036000830152610ff181610d84565b9050919050565b6000602082019050818103600083015261101181610dc4565b9050919050565b6000602082019050818103600083015261103181610e04565b9050919050565b6000602082019050818103600083015261105181610e44565b9050919050565b6000602082019050818103600083015261107181610e84565b9050919050565b6000602082019050818103600083015261109181610ec4565b9050919050565b600060208201905081810360008301526110b181610f2a565b9050919050565b60006020820190506110cd6000830184610f6a565b92915050565b600082825260208201905092915050565b60006110ef826111a9565b91506110fa836111a9565b9250827fffffffffffffffffffffffffffffffffffffffffffffffffffffffffffffffff0382111561112f5761112e6111b3565b5b828201905092915050565b6000611145826111a9565b9150611150836111a9565b9250826111605761115f6111e2565b5b828204905092915050565b600061117682611189565b9050919050565b60008115159050919050565b600073ffffffffffffffffffffffffffffffffffffffff82169050919050565b6000819050919050565b7f4e487b7100000000000000000000000000000000000000000000000000000000600052601160045260246000fd5b7f4e487b7100000000000000000000000000000000000000000000000000000000600052601260045260246000fd5b61121a8161116b565b811461122557600080fd5b50565b6112318161117d565b811461123c57600080fd5b5056fea264697066735822122009f99c87c222a87bf463778cd560b87014e1cd554ebef65f031f6e2377e864a664736f6c63430008000033",
  "linkReferences": {},
  "deployedLinkReferences": {}
}